{"abi":[{"type":"constructor","inputs":[],"stateMutability":"nonpayable"},{"type":"function","name":"DEFAULT_ADMIN_ROLE","inputs":[],"outputs":[{"name":"","type":"bytes32","internalType":"bytes32"}],"stateMutability":"view"},{"type":"function","name":"MANAGER_ROLE","inputs":[],"outputs":[{"name":"","type":"bytes32","internalType":"bytes32"}],"stateMutability":"view"},{"type":"function","name":"MAX_ORACLE_STALENESS","inputs":[],"outputs":[{"name":"","type":"uint256","internalType":"uint256"}],"stateMutability":"view"},{"type":"function","name":"MIN_UPDATE_INTERVAL","inputs":[],"outputs":[{"name":"","type":"uint256","internalType":"uint256"}],"stateMutability":"view"},{"type":"function","name":"MIN_VALID_ORACLES","inputs":[],"outputs":[{"name":"","type":"uint256","internalType":"uint256"}],"stateMutability":"view"},{"type":"function","name":"OPERATOR_ROLE","inputs":[],"outputs":[{"name":"","type":"bytes32","internalType":"bytes32"}],"stateMutability":"view"},{"type":"function","name":"authorizeOracleAdapter","inputs":[{"name":"adapter","type":"address","internalType":"address"}],"outputs":[],"stateMutability":"nonpayable"},{"type":"function","name":"deauthorizeOracle","inputs":[{"name":"adapter","type":"address","internalType":"address"}],"outputs":[],"stateMutability":"nonpayable"},{"type":"function","name":"generatePerformance","inputs":[{"name":"validator","type":"address","internalType":"address"}],"outputs":[{"name":"","type":"bool","internalType":"bool"}],"stateMutability":"nonpayable"},{"type":"function","name":"getAuthorizedOracleAt","inputs":[{"name":"index","type":"uint256","internalType":"uint256"}],"outputs":[{"name":"","type":"address","internalType":"address"}],"stateMutability":"view"},{"type":"function","name":"getAuthorizedOracleCount","inputs":[],"outputs":[{"name":"","type":"uint256","internalType":"uint256"}],"stateMutability":"view"},{"type":"function","name":"getAuthorizedOracles","inputs":[],"outputs":[{"name":"","type":"address[]","internalType":"address[]"}],"stateMutability":"view"},{"type":"function","name":"getRoleAdmin","inputs":[{"name":"role","type":"bytes32","internalType":"bytes32"}],"outputs":[{"name":"","type":"bytes32","internalType":"bytes32"}],"stateMutability":"view"},{"type":"function","name":"getRoleMember","inputs":[{"name":"role","type":"bytes32","internalType":"bytes32"},{"name":"index","type":"uint256","internalType":"uint256"}],"outputs":[{"name":"","type":"address","internalType":"address"}],"stateMutability":"view"},{"type":"function","name":"getRoleMemberCount","inputs":[{"name":"role","type":"bytes32","internalType":"bytes32"}],"outputs":[{"name":"","type":"uint256","internalType":"uint256"}],"stateMutability":"view"},{"type":"function","name":"getRoleMembers","inputs":[{"name":"role","type":"bytes32","internalType":"bytes32"}],"outputs":[{"name":"","type":"address[]","internalType":"address[]"}],"stateMutability":"view"},{"type":"function","name":"grantRole","inputs":[{"name":"role","type":"bytes32","internalType":"bytes32"},{"name":"account","type":"address","internalType":"address"}],"outputs":[],"stateMutability":"nonpayable"},{"type":"function","name":"hasRole","inputs":[{"name":"role","type":"bytes32","internalType":"bytes32"},{"name":"account","type":"address","internalType":"address"}],"outputs":[{"name":"","type":"bool","internalType":"bool"}],"stateMutability":"view"},{"type":"function","name":"initialize","inputs":[{"name":"admin","type":"address","internalType":"address"},{"name":"operator","type":"address","internalType":"address"},{"name":"manager","type":"address","internalType":"address"},{"name":"_pauserRegistry","type":"address","internalType":"address"},{"name":"_validatorManager","type":"address","internalType":"address"},{"name":"_maxPerformanceBound","type":"uint256","internalType":"uint256"}],"outputs":[],"stateMutability":"nonpayable"},{"type":"function","name":"isActiveOracle","inputs":[{"name":"adapter","type":"address","internalType":"address"}],"outputs":[{"name":"","type":"bool","internalType":"bool"}],"stateMutability":"view"},{"type":"function","name":"isAuthorizedOracle","inputs":[{"name":"adapter","type":"address","internalType":"address"}],"outputs":[{"name":"","type":"bool","internalType":"bool"}],"stateMutability":"view"},{"type":"function","name":"lastValidatorUpdate","inputs":[{"name":"","type":"address","internalType":"address"}],"outputs":[{"name":"","type":"uint256","internalType":"uint256"}],"stateMutability":"view"},{"type":"function","name":"maxPerformanceBound","inputs":[],"outputs":[{"name":"","type":"uint256","internalType":"uint256"}],"stateMutability":"view"},{"type":"function","name":"pauserRegistry","inputs":[],"outputs":[{"name":"","type":"address","internalType":"contract IPauserRegistry"}],"stateMutability":"view"},{"type":"function","name":"renounceRole","inputs":[{"name":"role","type":"bytes32","internalType":"bytes32"},{"name":"callerConfirmation","type":"address","internalType":"address"}],"outputs":[],"stateMutability":"nonpayable"},{"type":"function","name":"revokeRole","inputs":[{"name":"role","type":"bytes32","internalType":"bytes32"},{"name":"account","type":"address","internalType":"address"}],"outputs":[],"stateMutability":"nonpayable"},{"type":"function","name":"sanityChecker","inputs":[],"outputs":[{"name":"","type":"address","internalType":"contract IValidatorSanityChecker"}],"stateMutability":"view"},{"type":"function","name":"setMaxOracleStaleness","inputs":[{"name":"newStaleness","type":"uint256","internalType":"uint256"}],"outputs":[],"stateMutability":"nonpayable"},{"type":"function","name":"setMaxPerformanceBound","inputs":[{"name":"newBound","type":"uint256","internalType":"uint256"}],"outputs":[],"stateMutability":"nonpayable"},{"type":"function","name":"setMinUpdateInterval","inputs":[{"name":"newInterval","type":"uint256","internalType":"uint256"}],"outputs":[],"stateMutability":"nonpayable"},{"type":"function","name":"setMinValidOracles","inputs":[{"name":"newMinimum","type":"uint256","internalType":"uint256"}],"outputs":[],"stateMutability":"nonpayable"},{"type":"function","name":"setOracleActive","inputs":[{"name":"adapter","type":"address","internalType":"address"},{"name":"active","type":"bool","internalType":"bool"}],"outputs":[],"stateMutability":"nonpayable"},{"type":"function","name":"setSanityChecker","inputs":[{"name":"newChecker","type":"address","internalType":"address"}],"outputs":[],"stateMutability":"nonpayable"},{"type":"function","name":"supportsInterface","inputs":[{"name":"interfaceId","type":"bytes4","internalType":"bytes4"}],"outputs":[{"name":"","type":"bool","internalType":"bool"}],"stateMutability":"view"},{"type":"function","name":"validatorManager","inputs":[],"outputs":[{"name":"","type":"address","internalType":"contract IValidatorManager"}],"stateMutability":"view"},{"type":"event","name":"Initialized","inputs":[{"name":"version","type":"uint64","indexed":false,"internalType":"uint64"}],"anonymous":false},{"type":"event","name":"MaxOracleStalenessUpdated","inputs":[{"name":"","type":"uint256","indexed":false,"internalType":"uint256"}],"anonymous":false},{"type":"event","name":"MaxPerformanceBoundUpdated","inputs":[{"name":"newBound","type":"uint256","indexed":false,"internalType":"uint256"}],"anonymous":false},{"type":"event","name":"MinValidOraclesUpdated","inputs":[{"name":"newMinimum","type":"uint256","indexed":false,"internalType":"uint256"}],"anonymous":false},{"type":"event","name":"OracleActiveStateChanged","inputs":[{"name":"oracle","type":"address","indexed":true,"internalType":"address"},{"name":"active","type":"bool","indexed":false,"internalType":"bool"}],"anonymous":false},{"type":"event","name":"OracleAuthorized","inputs":[{"name":"oracle","type":"address","indexed":true,"internalType":"address"}],"anonymous":false},{"type":"event","name":"OracleDataStale","inputs":[{"name":"oracle","type":"address","indexed":true,"internalType":"address"},{"name":"validator","type":"address","indexed":true,"internalType":"address"},{"name":"timestamp","type":"uint256","indexed":false,"internalType":"uint256"},{"name":"currentTime","type":"uint256","indexed":false,"internalType":"uint256"}],"anonymous":false},{"type":"event","name":"OracleDeauthorized","inputs":[{"name":"oracle","type":"address","indexed":true,"internalType":"address"}],"anonymous":false},{"type":"event","name":"PerformanceUpdated","inputs":[{"name":"validator","type":"address","indexed":true,"internalType":"address"},{"name":"timestamp","type":"uint256","indexed":false,"internalType":"uint256"}],"anonymous":false},{"type":"event","name":"RoleAdminChanged","inputs":[{"name":"role","type":"bytes32","indexed":true,"internalType":"bytes32"},{"name":"previousAdminRole","type":"bytes32","indexed":true,"internalType":"bytes32"},{"name":"newAdminRole","type":"bytes32","indexed":true,"internalType":"bytes32"}],"anonymous":false},{"type":"event","name":"RoleGranted","inputs":[{"name":"role","type":"bytes32","indexed":true,"internalType":"bytes32"},{"name":"account","type":"address","indexed":true,"internalType":"address"},{"name":"sender","type":"address","indexed":true,"internalType":"address"}],"anonymous":false},{"type":"event","name":"RoleRevoked","inputs":[{"name":"role","type":"bytes32","indexed":true,"internalType":"bytes32"},{"name":"account","type":"address","indexed":true,"internalType":"address"},{"name":"sender","type":"address","indexed":true,"internalType":"address"}],"anonymous":false},{"type":"event","name":"SanityCheckerUpdated","inputs":[{"name":"newChecker","type":"address","indexed":true,"internalType":"address"}],"anonymous":false},{"type":"event","name":"ValidatorBehaviorCheckFailed","inputs":[{"name":"validator","type":"address","indexed":true,"internalType":"address"},{"name":"reason","type":"string","indexed":false,"internalType":"string"}],"anonymous":false},{"type":"error","name":"AccessControlBadConfirmation","inputs":[]},{"type":"error","name":"AccessControlUnauthorizedAccount","inputs":[{"name":"account","type":"address","internalType":"address"},{"name":"neededRole","type":"bytes32","internalType":"bytes32"}]},{"type":"error","name":"InvalidInitialization","inputs":[]},{"type":"error","name":"NotInitializing","inputs":[]}],"bytecode":{"object":"0x6080806040523460aa575f51602061263e5f395f51905f525460ff8160401c16609b576002600160401b03196001600160401b038216016049575b60405161258f90816100af8239f35b6001600160401b0319166001600160401b039081175f51602061263e5f395f51905f525581527fc7f505b2f371ae2175ee4913f4499e1f2633a7b5936321eed1cdaeb6115181d290602090a15f80603a565b63f92ee8a960e01b5f5260045ffd5b5f80fdfe610120806040526004361015610013575f80fd5b5f3560e01c90816301ffc9a71461127b57508063041f4993146111c6578063054a4471146111a85780631127b54314610fe4578063248a9ca314610fa55780632f2ff15d14610f5b57806336568abe14610f175780633ae9b8f114610eb6578063459d4be214610e145780634e14a58314610db55780635b57e9eb14610c675780635dc565c214610c4a5780636e138c8414610bd65780637c44defc14610bb9578063886f119514610b925780638b89d7f314610b755780638c9d41ce14610add5780639010d07c14610a8c57806391d1485414610a3757806392a60e871461098c57806395b6ef0c14610594578063a217fddf1461057a578063a2a9c3f014610483578063a3246ad314610403578063ae39467a1461037b578063bd3be27c1461035e578063bfe609da1461031c578063ca15c873146102e6578063cf669bd1146102be578063d547741f1461026d578063da9df73814610235578063ec87621c1461020e578063efe4c4c5146101f1578063f5b541a6146101ca5763fe55bde91461019e575f80fd5b346101c6575f3660031901126101c6576001546040516001600160a01b039091168152602090f35b5f80fd5b346101c6575f3660031901126101c65760206040515f5160206124fa5f395f51905f528152f35b346101c6575f3660031901126101c6576020600654604051908152f35b346101c6575f3660031901126101c65760206040515f5160206124da5f395f51905f528152f35b346101c65760203660031901126101c6576001600160a01b036102566112e8565b165f526007602052602060405f2054604051908152f35b346101c65760403660031901126101c6576102bc60043561028c6112fe565b906102b76102b2825f525f51602061251a5f395f51905f52602052600160405f20015490565b611e52565b611ede565b005b346101c6575f3660031901126101c6576002546040516001600160a01b039091168152602090f35b346101c65760203660031901126101c6576004355f525f5160206124ba5f395f51905f52602052602060405f2054604051908152f35b346101c65760203660031901126101c65760206103546001600160a01b036103426112e8565b165f52600960205260405f2054151590565b6040519015158152f35b346101c6575f3660031901126101c6576020600454604051908152f35b346101c65760203660031901126101c657600435610397611d9a565b80156103ce576020817f9a9669257d8f89edd2af2c0870a081f18b0e8f3e7dd8c5354b66a4d6f037faca92600355604051908152a1005b60405162461bcd60e51b815260206004820152600d60248201526c125b9d985b1a5908189bdd5b99609a1b6044820152606490fd5b346101c65760203660031901126101c6576004355f525f5160206124ba5f395f51905f5260205260405f206040519081602082549182815201915f5260205f20905f5b81811061046d576104698561045d81870382611356565b60405191829182611314565b0390f35b8254845260209093019260019283019201610446565b346101c65760203660031901126101c65761049c6112e8565b5f54604051635b14f18360e01b815230600482015290602090829060249082906001600160a01b03165afa801561056f575f90610534575b6104df915015611399565b6104e7611df6565b6001600160a01b03166104f981612329565b50805f52600a60205260405f2060ff1981541690557fd9208accea6cedc894d1ffe2d3793fa9285afc1e08473d1adfcad86b26deadbd5f80a2005b506020813d602011610567575b8161054e60209383611356565b810103126101c6576105626104df9161138c565b6104d4565b3d9150610541565b6040513d5f823e3d90fd5b346101c6575f3660031901126101c65760206040515f8152f35b346101c65760c03660031901126101c6576105ad6112e8565b6105b56112fe565b90604435906001600160a01b0382168083036101c6576064356001600160a01b03811691908290036101c6576084356001600160a01b03811693908490036101c65760a435945f51602061253a5f395f51905f52549660ff8860401c16159767ffffffffffffffff811680159081610984575b600114908161097a575b159081610971575b506109625767ffffffffffffffff1981166001175f51602061253a5f395f51905f525588610936575b5060ff5f51602061253a5f395f51905f525460401c16156109275784156108e257851561089d578615610858578261069d6106b79461201f565b61080a575b506106ac816120b6565b6107af575b5061215c565b61075d575b506bffffffffffffffffffffffff60a01b5f5416175f556bffffffffffffffffffffffff60a01b600154161760015560035562015180600455610e10600555600160065561070657005b68ff0000000000000000195f51602061253a5f395f51905f5254165f51602061253a5f395f51905f52557fc7f505b2f371ae2175ee4913f4499e1f2633a7b5936321eed1cdaeb6115181d2602060405160018152a1005b5f5160206124da5f395f51905f525f525f5160206124ba5f395f51905f526020526107a8907f4100344b6aa56dacd4c22fd3b2e50ba7459cdb2cf0a0bdb443a7a9a08e239af6611fcc565b50846106bc565b5f5160206124fa5f395f51905f525f525f5160206124ba5f395f51905f52602052610803906001600160a01b03167f7359f21550028cf936ad73cd9e71366316d347a092c8f618b5c5a3efa6bec1ef611fcc565b50876106b1565b5f80525f5160206124ba5f395f51905f52602052610851906001600160a01b03167f615f0f9e84155bea8cc509fe18befeb1baf65611e38a6ba60964480fb29dfd44611fcc565b50886106a2565b60405162461bcd60e51b815260206004820152601d60248201527f496e76616c6964206d617820706572666f726d616e636520626f756e640000006044820152606490fd5b60405162461bcd60e51b815260206004820152601960248201527f496e76616c69642076616c696461746f72206d616e61676572000000000000006044820152606490fd5b60405162461bcd60e51b815260206004820152601760248201527f496e76616c6964207061757365722072656769737472790000000000000000006044820152606490fd5b631afcd79f60e31b5f5260045ffd5b68ffffffffffffffffff191668010000000000000001175f51602061253a5f395f51905f525588610663565b63f92ee8a960e01b5f5260045ffd5b9050158a61063a565b303b159150610632565b8a9150610628565b346101c65760203660031901126101c6576109a56112e8565b335f9081527fb7db2dd08fcb62d0c9e08c51941cae53c267786a0b75803fb7960902fc8ef97d602052604090205460ff1615610a2057600280546001600160a01b0319166001600160a01b039290921691821790557fbd6528a9f5ffb8924396f9fd16e7464a37e0457d49d171eb937195f55ed157b25f80a2005b63e2517d3f60e01b5f52336004525f60245260445ffd5b346101c65760403660031901126101c657610a506112fe565b6004355f525f51602061251a5f395f51905f5260205260405f209060018060a01b03165f52602052602060ff60405f2054166040519015158152f35b346101c65760403660031901126101c6576004355f525f5160206124ba5f395f51905f526020526020610ac460243560405f20611f4c565b905460405160039290921b1c6001600160a01b03168152f35b346101c65760203660031901126101c657600435610af9611df6565b8015610b30576020817ffcc0e600be0adc90f1d8e7eb8b988819b706b3d103b28f82471d9d3df973a7d292600555604051908152a1005b60405162461bcd60e51b815260206004820152601860248201527f496e76616c6964207374616c656e65737320706572696f6400000000000000006044820152606490fd5b346101c6575f3660031901126101c6576020600354604051908152f35b346101c6575f3660031901126101c6575f546040516001600160a01b039091168152602090f35b346101c6575f3660031901126101c6576020600854604051908152f35b346101c6575f3660031901126101c65760405180602060085491828152019060085f527ff3f7a9fe364faab93b216da50a3214154f22a0a2b415b23a84c8169e8b636ee3905f5b818110610c34576104698561045d81870382611356565b8254845260209093019260019283019201610c1d565b346101c6575f3660031901126101c6576020600554604051908152f35b346101c65760403660031901126101c657610c806112e8565b602435908115158092036101c6575f54604051635b14f18360e01b815230600482015290602090829060249082906001600160a01b03165afa801561056f575f90610d7a575b610cd1915015611399565b610cd9611df6565b6001600160a01b03165f8181526009602052604090205490919015610d3d5760207ff2358e9908a9fbb54887e6667e3ef0ce5f517436cfc0589383945e89c69685cf91835f52600a825260405f2060ff1981541660ff8316179055604051908152a2005b60405162461bcd60e51b815260206004820152601560248201527413dc9858db19481b9bdd08185d5d1a1bdc9a5e9959605a1b6044820152606490fd5b506020813d602011610dad575b81610d9460209383611356565b810103126101c657610da8610cd19161138c565b610cc6565b3d9150610d87565b346101c65760203660031901126101c657600435610dd1611df6565b8015610ddc57600455005b60405162461bcd60e51b815260206004820152601060248201526f125b9d985b1a59081a5b9d195c9d985b60821b6044820152606490fd5b346101c65760203660031901126101c657600435610e30611df6565b8015610e67576020817f51eed4c6b2994c20888020ae53a11cdc6ad201d14f44a78144667497248d4be792600655604051908152a1005b60405162461bcd60e51b815260206004820152602160248201527f4d696e696d756d206d7573742062652067726561746572207468616e207a65726044820152606f60f81b6064820152608490fd5b346101c65760203660031901126101c6576001600160a01b03610ed76112e8565b16610eed815f52600960205260405f2054151590565b80610f00575b6020906040519015158152f35b505f52600a602052602060ff60405f205416610ef3565b346101c65760403660031901126101c657610f306112fe565b336001600160a01b03821603610f4c576102bc90600435611ede565b63334bd91960e11b5f5260045ffd5b346101c65760403660031901126101c6576102bc600435610f7a6112fe565b90610fa06102b2825f525f51602061251a5f395f51905f52602052600160405f20015490565b611e98565b346101c65760203660031901126101c6576020610fdc6004355f525f51602061251a5f395f51905f52602052600160405f20015490565b604051908152f35b346101c65760203660031901126101c657610ffd6112e8565b5f54604051635b14f18360e01b815230600482015290602090829060249082906001600160a01b03165afa801561056f575f9061116d575b611040915015611399565b611048611df6565b6001600160a01b0316801561112f576040516301ffc9a760e01b8152634d33c05b60e01b6004820152602081602481855afa90811561056f575f916110f5575b50156110be5761109781611f61565b507f5a7a3f71a35f5e2589980d29d1c6d8c75e39657751190874081e55208bae24b75f80a2005b60405162461bcd60e51b815260206004820152600f60248201526e24b73b30b634b21030b230b83a32b960891b6044820152606490fd5b90506020813d602011611127575b8161111060209383611356565b810103126101c6576111219061138c565b82611088565b3d9150611103565b60405162461bcd60e51b8152602060048201526016602482015275496e76616c6964206f7261636c65206164647265737360501b6044820152606490fd5b506020813d6020116111a0575b8161118760209383611356565b810103126101c65761119b6110409161138c565b611035565b3d915061117a565b346101c65760203660031901126101c6576020610ac4600435611f20565b346101c65760203660031901126101c6576111df6112e8565b5f54604051635b14f18360e01b815230600482015290602090829060249082906001600160a01b03165afa90811561056f575f91611235575b6020610354846112288515611399565b611230611d9a565b611426565b90506020813d602011611273575b8161125060209383611356565b810103126101c65760209161122861126a6103549361138c565b92505091611218565b3d9150611243565b346101c65760203660031901126101c6576004359063ffffffff60e01b82168092036101c657602091635a05180f60e01b81149081156112bd575b5015158152f35b637965db0b60e01b8114915081156112d7575b50836112b6565b6301ffc9a760e01b149050836112d0565b600435906001600160a01b03821682036101c657565b602435906001600160a01b03821682036101c657565b60206040818301928281528451809452019201905f5b8181106113375750505090565b82516001600160a01b031684526020938401939092019160010161132a565b90601f8019910116810190811067ffffffffffffffff82111761137857604052565b634e487b7160e01b5f52604160045260245ffd5b519081151582036101c657565b156113a057565b60405162461bcd60e51b815260206004820152601260248201527110dbdb9d1c9858dd081a5cc81c185d5cd95960721b6044820152606490fd5b919082018092116113e757565b634e487b7160e01b5f52601160045260245ffd5b8115611405570490565b634e487b7160e01b5f52601260045260245ffd5b919082039182116113e757565b610100525f60c05260018060a01b0361010051165f52600760205261145260405f2054600454906113da565b4210611d4b57610100516001600160a01b031615611d0657600154604051638f50bd1360e01b8152610100516001600160a01b03908116600483015290911690602081602481855afa90811561056f575f91611ccc575b50611c8757600854908115611c4a575f60a081905260e08190529182918291829182918290815b818110611a1157505060065460e051106119cc5761150e6115046114fa6115189360e051906113fb565b9760e051906113fb565b9460e051906113fb565b9260e051906113fb565b9261154161153761152d60e05160a0516113fb565b9860e051906113fb565b9560e051906113fb565b60405163da13ffbf60e01b8152610100516001600160a01b0316600482015290979096602088602481875afa97881561056f575f98611998575b506040516358c22e2b60e11b8152610100516001600160a01b0316600482015295602087602481885afa96871561056f575f97611964575b50602060808190526040516001916115cb9082611356565b5f81526002549091906001600160a01b03168061184d575b50156117d75750843b156101c6575f9460c49386926040519889978896637e78936b60e11b885260018060a01b0361010051166004890152602488015260448701526064860152608485015260a48401525af1801561056f576117c3575b50808211611744575b50508082116116b2575b505060018060a01b03610100511660c0515260076080515242604060c05120556040514281527f8867389dc1217dc31266587124e2684cf763acfe0b8d061deeef403db9214ed560018060a01b0361010051169160805190a2600190565b6116bb91611419565b6001546001600160a01b031690813b1561173157604051630df3a5ab60e21b815260c08051610100516001600160a01b03166004840152602483019390935251909283916044918391905af1801561173757611718575b80611654565b60c05161172491611356565b60c051611731575f611712565b60c05180fd5b6040513d60c051823e3d90fd5b61174d91611419565b6001546001600160a01b031690813b156117315760405163825b747760e01b815260c08051610100516001600160a01b03166004840152602483019390935251909283916044918391905af18015611737576117aa575b8061164a565b60c0516117b691611356565b60c051611731575f6117a4565b5f6117cd91611356565b5f60c0525f611641565b99505050505050505050507f8b284957090bffc4d1cc68574f4d698658846728f929fde0ff64f9efae5779a96040516080518152825180938160805184015260805101604083015e5f818401604090810191909152610100516001600160a01b031693601f01601f191682018290030190a25f90565b9150505f8b610104604051809481936384ad047560e01b835260018060a01b036101005116600484015288602484015260448301528d60648301528960848301528b60a48301528660c48301528860e48301525afa801561056f575f915f916118b9575b50905f6115e3565b9150503d90815f823e6118cc8282611356565b60408183810103126101c6576118e18161138c565b9060805181015167ffffffffffffffff81116101c657838201601f8284010112156101c657808201519067ffffffffffffffff821161137857608051601f19601f84011601946119346040519687611356565b8286528301608051838386010101116101c6576080515f9383920181019086015e6080519084010152905f6118b1565b9096506020813d602011611990575b8161198060209383611356565b810103126101c65751955f6115b3565b3d9150611973565b9097506020813d6020116119c4575b816119b460209383611356565b810103126101c65751965f61157b565b3d91506119a7565b60405162461bcd60e51b815260206004820152601a60248201527f496e73756666696369656e742076616c6964206f7261636c65730000000000006044820152606490fd5b611a1a81611f20565b905460039190911b1c6001600160a01b03165f818152600a602052604090205460ff1615611c4057604051631ecc9aaf60e01b815261010080516001600160a01b0316600483015290919082602481845afa5f905f5f935f935f935f92815f995f93611bd2575b50611a9b575b505050505050505050600101905b906114d0565b611aa7600554836113da565b4211611b73575050600354808411159081611b68575b81611b5d575b81611b52575b50611ad6575b8080611a87565b959e95611aee91959e92999d979d9c939b949c6113da565b97611af8916113da565b9b611b02916113da565b98611b0c916113da565b9660a05190611b1a916113da565b60a052611b26916113da565b98611b30916113da565b955f1960e051146113e7576001908160e0510160e052905f8080808080611acf565b90508411155f611ac9565b808711159150611ac3565b808811159150611abd565b9550955050505050600193925081611b8f575b50500190611a95565b6040519182524260208301527fb66e551c1dc1f06e6230894c4d161a7dc41eee0ea62d9d018efdb869eb26a3ec6040858060a01b03610100511693a35f80611b86565b9850965097505050505050610100823d8211611c38575b81611bf76101009383611356565b810103126101c6578151602083015160408401516060850151608086015160a087015160c088015160e090980151979893979296919590939092915f611a81565b3d9150611be9565b5060010190611a95565b60405162461bcd60e51b8152602060048201526015602482015274139bc81bdc9858db195cc8185d5d1a1bdc9a5e9959605a1b6044820152606490fd5b60405162461bcd60e51b815260206004820152601f60248201527f56616c696461746f72206861732070656e64696e6720726562616c616e6365006044820152606490fd5b90506020813d602011611cfe575b81611ce760209383611356565b810103126101c657611cf89061138c565b5f6114a9565b3d9150611cda565b60405162461bcd60e51b815260206004820152601960248201527f496e76616c69642076616c696461746f722061646472657373000000000000006044820152606490fd5b60405162461bcd60e51b815260206004820152602160248201527f55706461746520746f6f206672657175656e7420666f722076616c696461746f6044820152603960f91b6064820152608490fd5b335f9081527f448256db8f8fb95ee3eaaf89c1051414494e85cebb6057fcf996cc3d0ccfb456602052604090205460ff1615611dd257565b63e2517d3f60e01b5f52336004525f5160206124fa5f395f51905f5260245260445ffd5b335f9081527f06484cc59dc38e4f67c31122333a17ca81b3ca18cdf02bfc298072fa52b0316a602052604090205460ff1615611e2e57565b63e2517d3f60e01b5f52336004525f5160206124da5f395f51905f5260245260445ffd5b5f8181525f51602061251a5f395f51905f526020908152604080832033845290915290205460ff1615611e825750565b63e2517d3f60e01b5f523360045260245260445ffd5b611ea28282612202565b9182611ead57505090565b5f9182525f5160206124ba5f395f51905f526020526040909120611eda916001600160a01b031690611fcc565b5090565b611ee8828261228d565b9182611ef357505090565b5f9182525f5160206124ba5f395f51905f526020526040909120611eda916001600160a01b0316906123e8565b600854811015611f385760085f5260205f2001905f90565b634e487b7160e01b5f52603260045260245ffd5b8054821015611f38575f5260205f2001905f90565b805f52600960205260405f2054155f14611fc757600854600160401b81101561137857611fb0611f9a8260018594016008556008611f4c565b819391549060031b91821b915f19901b19161790565b9055600854905f52600960205260405f2055600190565b505f90565b5f82815260018201602052604090205461201957805490600160401b8210156113785782612004611f9a846001809601855584611f4c565b90558054925f520160205260405f2055600190565b50505f90565b6001600160a01b0381165f9081527fb7db2dd08fcb62d0c9e08c51941cae53c267786a0b75803fb7960902fc8ef97d602052604090205460ff16611fc7576001600160a01b03165f8181527fb7db2dd08fcb62d0c9e08c51941cae53c267786a0b75803fb7960902fc8ef97d60205260408120805460ff191660011790553391905f51602061249a5f395f51905f528180a4600190565b6001600160a01b0381165f9081527f448256db8f8fb95ee3eaaf89c1051414494e85cebb6057fcf996cc3d0ccfb456602052604090205460ff16611fc7576001600160a01b03165f8181527f448256db8f8fb95ee3eaaf89c1051414494e85cebb6057fcf996cc3d0ccfb45660205260408120805460ff191660011790553391905f5160206124fa5f395f51905f52905f51602061249a5f395f51905f529080a4600190565b6001600160a01b0381165f9081527f06484cc59dc38e4f67c31122333a17ca81b3ca18cdf02bfc298072fa52b0316a602052604090205460ff16611fc7576001600160a01b03165f8181527f06484cc59dc38e4f67c31122333a17ca81b3ca18cdf02bfc298072fa52b0316a60205260408120805460ff191660011790553391905f5160206124da5f395f51905f52905f51602061249a5f395f51905f529080a4600190565b5f8181525f51602061251a5f395f51905f52602090815260408083206001600160a01b038616845290915290205460ff16612019575f8181525f51602061251a5f395f51905f52602090815260408083206001600160a01b0395909516808452949091528120805460ff19166001179055339291905f51602061249a5f395f51905f529080a4600190565b5f8181525f51602061251a5f395f51905f52602090815260408083206001600160a01b038616845290915290205460ff1615612019575f8181525f51602061251a5f395f51905f52602090815260408083206001600160a01b0395909516808452949091528120805460ff19169055339291907ff6391f5c32d9c69d2a47ea670b442974b53935d1edc7fd64eb21e047a839171b9080a4600190565b5f818152600960205260409020548015612019575f1981018181116113e7576008545f198101919082116113e7578181036123b0575b505050600854801561239c575f1901612379816008611f4c565b8154905f199060031b1b191690556008555f5260096020525f6040812055600190565b634e487b7160e01b5f52603160045260245ffd5b6123d26123c1611f9a936008611f4c565b90549060031b1c9283926008611f4c565b90555f52600960205260405f20555f808061235f565b906001820191815f528260205260405f20548015155f14612491575f1981018181116113e75782545f198101919082116113e75781810361245c575b5050508054801561239c575f19019061243d8282611f4c565b8154905f199060031b1b19169055555f526020525f6040812055600190565b61247c61246c611f9a9386611f4c565b90549060031b1c92839286611f4c565b90555f528360205260405f20555f8080612424565b505050505f9056fe2f8788117e7eff1d82e926ec794901d17c78024a50270940304540a733656f0dc1f6fe24621ce81ec5827caf0253cadb74709b061630e6b55e82371705932000241ecf16d79d0f8dbfb92cbc07fe17840425976cf0667f022fe9877caa831b0897667070c54ef182b0f5858b034beac1b6f3089aa2d3188bb1e8929f4fa9b92902dd7bc7dec4dceedda775e58dd541e08a116c6c53815c0bd028192f7b626800f0c57e16840df040f15088dc2f81fe391c3923bec73e23a9662efc9c229c6a00a26469706673582212208e59149e9bc35941c7a23dce1eb70b8cc2a22266fb5457e32da104d5d5e4853c64736f6c634300081c0033f0c57e16840df040f15088dc2f81fe391c3923bec73e23a9662efc9c229c6a00","linkReferences":{}},"methodIdentifiers":{"DEFAULT_ADMIN_ROLE()":"a217fddf","MANAGER_ROLE()":"ec87621c","MAX_ORACLE_STALENESS()":"5dc565c2","MIN_UPDATE_INTERVAL()":"bd3be27c","MIN_VALID_ORACLES()":"efe4c4c5","OPERATOR_ROLE()":"f5b541a6","authorizeOracleAdapter(address)":"1127b543","deauthorizeOracle(address)":"a2a9c3f0","generatePerformance(address)":"041f4993","getAuthorizedOracleAt(uint256)":"054a4471","getAuthorizedOracleCount()":"7c44defc","getAuthorizedOracles()":"6e138c84","getRoleAdmin(bytes32)":"248a9ca3","getRoleMember(bytes32,uint256)":"9010d07c","getRoleMemberCount(bytes32)":"ca15c873","getRoleMembers(bytes32)":"a3246ad3","grantRole(bytes32,address)":"2f2ff15d","hasRole(bytes32,address)":"91d14854","initialize(address,address,address,address,address,uint256)":"95b6ef0c","isActiveOracle(address)":"3ae9b8f1","isAuthorizedOracle(address)":"bfe609da","lastValidatorUpdate(address)":"da9df738","maxPerformanceBound()":"8b89d7f3","pauserRegistry()":"886f1195","renounceRole(bytes32,address)":"36568abe","revokeRole(bytes32,address)":"d547741f","sanityChecker()":"cf669bd1","setMaxOracleStaleness(uint256)":"8c9d41ce","setMaxPerformanceBound(uint256)":"ae39467a","setMinUpdateInterval(uint256)":"4e14a583","setMinValidOracles(uint256)":"459d4be2","setOracleActive(address,bool)":"5b57e9eb","setSanityChecker(address)":"92a60e87","supportsInterface(bytes4)":"01ffc9a7","validatorManager()":"fe55bde9"},"id":87}