{"abi":[{"type":"constructor","inputs":[],"stateMutability":"nonpayable"},{"type":"function","name":"BASIS_POINTS","inputs":[],"outputs":[{"name":"","type":"uint256","internalType":"uint256"}],"stateMutability":"view"},{"type":"function","name":"DEFAULT_ADMIN_ROLE","inputs":[],"outputs":[{"name":"","type":"bytes32","internalType":"bytes32"}],"stateMutability":"view"},{"type":"function","name":"MANAGER_ROLE","inputs":[],"outputs":[{"name":"","type":"bytes32","internalType":"bytes32"}],"stateMutability":"view"},{"type":"function","name":"ORACLE_MANAGER_ROLE","inputs":[],"outputs":[{"name":"","type":"bytes32","internalType":"bytes32"}],"stateMutability":"view"},{"type":"function","name":"activateValidator","inputs":[{"name":"validator","type":"address","internalType":"address"}],"outputs":[],"stateMutability":"nonpayable"},{"type":"function","name":"activeValidatorsCount","inputs":[],"outputs":[{"name":"","type":"uint256","internalType":"uint256"}],"stateMutability":"view"},{"type":"function","name":"closeRebalanceRequests","inputs":[{"name":"stakingManager","type":"address","internalType":"address"},{"name":"validators","type":"address[]","internalType":"address[]"}],"outputs":[],"stateMutability":"nonpayable"},{"type":"function","name":"deactivateValidator","inputs":[{"name":"validator","type":"address","internalType":"address"}],"outputs":[],"stateMutability":"nonpayable"},{"type":"function","name":"delegations","inputs":[{"name":"","type":"address","internalType":"address"}],"outputs":[{"name":"","type":"address","internalType":"address"}],"stateMutability":"view"},{"type":"function","name":"getDelegation","inputs":[{"name":"stakingManager","type":"address","internalType":"address"}],"outputs":[{"name":"","type":"address","internalType":"address"}],"stateMutability":"view"},{"type":"function","name":"getRoleAdmin","inputs":[{"name":"role","type":"bytes32","internalType":"bytes32"}],"outputs":[{"name":"","type":"bytes32","internalType":"bytes32"}],"stateMutability":"view"},{"type":"function","name":"getRoleMember","inputs":[{"name":"role","type":"bytes32","internalType":"bytes32"},{"name":"index","type":"uint256","internalType":"uint256"}],"outputs":[{"name":"","type":"address","internalType":"address"}],"stateMutability":"view"},{"type":"function","name":"getRoleMemberCount","inputs":[{"name":"role","type":"bytes32","internalType":"bytes32"}],"outputs":[{"name":"","type":"uint256","internalType":"uint256"}],"stateMutability":"view"},{"type":"function","name":"getRoleMembers","inputs":[{"name":"role","type":"bytes32","internalType":"bytes32"}],"outputs":[{"name":"","type":"address[]","internalType":"address[]"}],"stateMutability":"view"},{"type":"function","name":"grantRole","inputs":[{"name":"role","type":"bytes32","internalType":"bytes32"},{"name":"account","type":"address","internalType":"address"}],"outputs":[],"stateMutability":"nonpayable"},{"type":"function","name":"hasPendingRebalance","inputs":[{"name":"validator","type":"address","internalType":"address"}],"outputs":[{"name":"","type":"bool","internalType":"bool"}],"stateMutability":"view"},{"type":"function","name":"hasRole","inputs":[{"name":"role","type":"bytes32","internalType":"bytes32"},{"name":"account","type":"address","internalType":"address"}],"outputs":[{"name":"","type":"bool","internalType":"bool"}],"stateMutability":"view"},{"type":"function","name":"initialize","inputs":[{"name":"admin","type":"address","internalType":"address"},{"name":"manager","type":"address","internalType":"address"},{"name":"_oracle","type":"address","internalType":"address"},{"name":"_pauserRegistry","type":"address","internalType":"address"}],"outputs":[],"stateMutability":"nonpayable"},{"type":"function","name":"pauserRegistry","inputs":[],"outputs":[{"name":"","type":"address","internalType":"contract IPauserRegistry"}],"stateMutability":"view"},{"type":"function","name":"reactivateValidator","inputs":[{"name":"validator","type":"address","internalType":"address"}],"outputs":[],"stateMutability":"nonpayable"},{"type":"function","name":"rebalanceWithdrawal","inputs":[{"name":"stakingManager","type":"address","internalType":"address"},{"name":"validators","type":"address[]","internalType":"address[]"},{"name":"withdrawalAmounts","type":"uint256[]","internalType":"uint256[]"}],"outputs":[],"stateMutability":"nonpayable"},{"type":"function","name":"renounceRole","inputs":[{"name":"role","type":"bytes32","internalType":"bytes32"},{"name":"callerConfirmation","type":"address","internalType":"address"}],"outputs":[],"stateMutability":"nonpayable"},{"type":"function","name":"reportRewardEvent","inputs":[{"name":"validator","type":"address","internalType":"address"},{"name":"amount","type":"uint256","internalType":"uint256"}],"outputs":[],"stateMutability":"nonpayable"},{"type":"function","name":"reportSlashingEvent","inputs":[{"name":"validator","type":"address","internalType":"address"},{"name":"amount","type":"uint256","internalType":"uint256"}],"outputs":[],"stateMutability":"nonpayable"},{"type":"function","name":"revokeRole","inputs":[{"name":"role","type":"bytes32","internalType":"bytes32"},{"name":"account","type":"address","internalType":"address"}],"outputs":[],"stateMutability":"nonpayable"},{"type":"function","name":"setDelegation","inputs":[{"name":"stakingManager","type":"address","internalType":"address"},{"name":"validator","type":"address","internalType":"address"}],"outputs":[],"stateMutability":"nonpayable"},{"type":"function","name":"supportsInterface","inputs":[{"name":"interfaceId","type":"bytes4","internalType":"bytes4"}],"outputs":[{"name":"","type":"bool","internalType":"bool"}],"stateMutability":"view"},{"type":"function","name":"totalRewards","inputs":[],"outputs":[{"name":"","type":"uint256","internalType":"uint256"}],"stateMutability":"view"},{"type":"function","name":"totalSlashing","inputs":[],"outputs":[{"name":"","type":"uint256","internalType":"uint256"}],"stateMutability":"view"},{"type":"function","name":"updateValidatorPerformance","inputs":[{"name":"validator","type":"address","internalType":"address"},{"name":"balance","type":"uint256","internalType":"uint256"},{"name":"uptimeScore","type":"uint256","internalType":"uint256"},{"name":"speedScore","type":"uint256","internalType":"uint256"},{"name":"integrityScore","type":"uint256","internalType":"uint256"},{"name":"selfStakeScore","type":"uint256","internalType":"uint256"}],"outputs":[],"stateMutability":"nonpayable"},{"type":"function","name":"validatorActiveState","inputs":[{"name":"validator","type":"address","internalType":"address"}],"outputs":[{"name":"","type":"bool","internalType":"bool"}],"stateMutability":"view"},{"type":"function","name":"validatorAt","inputs":[{"name":"index","type":"uint256","internalType":"uint256"}],"outputs":[{"name":"validator","type":"address","internalType":"address"},{"name":"data","type":"tuple","internalType":"struct IValidatorManager.Validator","components":[{"name":"balance","type":"uint256","internalType":"uint256"},{"name":"uptimeScore","type":"uint256","internalType":"uint256"},{"name":"speedScore","type":"uint256","internalType":"uint256"},{"name":"integrityScore","type":"uint256","internalType":"uint256"},{"name":"selfStakeScore","type":"uint256","internalType":"uint256"},{"name":"lastUpdateTime","type":"uint256","internalType":"uint256"},{"name":"active","type":"bool","internalType":"bool"}]}],"stateMutability":"view"},{"type":"function","name":"validatorBalance","inputs":[{"name":"validator","type":"address","internalType":"address"}],"outputs":[{"name":"","type":"uint256","internalType":"uint256"}],"stateMutability":"view"},{"type":"function","name":"validatorCount","inputs":[],"outputs":[{"name":"","type":"uint256","internalType":"uint256"}],"stateMutability":"view"},{"type":"function","name":"validatorInfo","inputs":[{"name":"validator","type":"address","internalType":"address"}],"outputs":[{"name":"","type":"tuple","internalType":"struct IValidatorManager.Validator","components":[{"name":"balance","type":"uint256","internalType":"uint256"},{"name":"uptimeScore","type":"uint256","internalType":"uint256"},{"name":"speedScore","type":"uint256","internalType":"uint256"},{"name":"integrityScore","type":"uint256","internalType":"uint256"},{"name":"selfStakeScore","type":"uint256","internalType":"uint256"},{"name":"lastUpdateTime","type":"uint256","internalType":"uint256"},{"name":"active","type":"bool","internalType":"bool"}]}],"stateMutability":"view"},{"type":"function","name":"validatorLastUpdateTime","inputs":[{"name":"validator","type":"address","internalType":"address"}],"outputs":[{"name":"","type":"uint256","internalType":"uint256"}],"stateMutability":"view"},{"type":"function","name":"validatorPerformance","inputs":[{"name":"","type":"address","internalType":"address"}],"outputs":[{"name":"balance","type":"uint256","internalType":"uint256"},{"name":"uptimeScore","type":"uint256","internalType":"uint256"},{"name":"speedScore","type":"uint256","internalType":"uint256"},{"name":"integrityScore","type":"uint256","internalType":"uint256"},{"name":"selfStakeScore","type":"uint256","internalType":"uint256"},{"name":"timestamp","type":"uint256","internalType":"uint256"}],"stateMutability":"view"},{"type":"function","name":"validatorRebalanceRequests","inputs":[{"name":"","type":"address","internalType":"address"}],"outputs":[{"name":"staking","type":"address","internalType":"address"},{"name":"validator","type":"address","internalType":"address"},{"name":"amount","type":"uint256","internalType":"uint256"}],"stateMutability":"view"},{"type":"function","name":"validatorRewards","inputs":[{"name":"","type":"address","internalType":"address"}],"outputs":[{"name":"","type":"uint256","internalType":"uint256"}],"stateMutability":"view"},{"type":"function","name":"validatorScores","inputs":[{"name":"validator","type":"address","internalType":"address"}],"outputs":[{"name":"uptimeScore","type":"uint256","internalType":"uint256"},{"name":"speedScore","type":"uint256","internalType":"uint256"},{"name":"integrityScore","type":"uint256","internalType":"uint256"},{"name":"selfStakeScore","type":"uint256","internalType":"uint256"}],"stateMutability":"view"},{"type":"function","name":"validatorSlashing","inputs":[{"name":"","type":"address","internalType":"address"}],"outputs":[{"name":"","type":"uint256","internalType":"uint256"}],"stateMutability":"view"},{"type":"event","name":"AllRebalanceRequestsClosed","inputs":[{"name":"count","type":"uint256","indexed":false,"internalType":"uint256"},{"name":"timestamp","type":"uint256","indexed":false,"internalType":"uint256"}],"anonymous":false},{"type":"event","name":"DelegationUpdated","inputs":[{"name":"stakingManager","type":"address","indexed":true,"internalType":"address"},{"name":"oldDelegation","type":"address","indexed":true,"internalType":"address"},{"name":"newDelegation","type":"address","indexed":true,"internalType":"address"}],"anonymous":false},{"type":"event","name":"EmergencyCooldownUpdated","inputs":[{"name":"cooldown","type":"uint256","indexed":false,"internalType":"uint256"}],"anonymous":false},{"type":"event","name":"EmergencyWithdrawalLimitUpdated","inputs":[{"name":"newLimit","type":"uint256","indexed":false,"internalType":"uint256"}],"anonymous":false},{"type":"event","name":"EmergencyWithdrawalProcessed","inputs":[{"name":"validator","type":"address","indexed":true,"internalType":"address"},{"name":"amount","type":"uint256","indexed":false,"internalType":"uint256"}],"anonymous":false},{"type":"event","name":"EmergencyWithdrawalRequested","inputs":[{"name":"validator","type":"address","indexed":true,"internalType":"address"},{"name":"amount","type":"uint256","indexed":false,"internalType":"uint256"}],"anonymous":false},{"type":"event","name":"Initialized","inputs":[{"name":"version","type":"uint64","indexed":false,"internalType":"uint64"}],"anonymous":false},{"type":"event","name":"PerformanceReportGenerated","inputs":[{"name":"validator","type":"address","indexed":true,"internalType":"address"},{"name":"timestamp","type":"uint256","indexed":false,"internalType":"uint256"}],"anonymous":false},{"type":"event","name":"RebalanceBatchProcessed","inputs":[{"name":"startIndex","type":"uint256","indexed":false,"internalType":"uint256"},{"name":"endIndex","type":"uint256","indexed":false,"internalType":"uint256"},{"name":"timestamp","type":"uint256","indexed":false,"internalType":"uint256"}],"anonymous":false},{"type":"event","name":"RebalanceCooldownUpdated","inputs":[{"name":"cooldown","type":"uint256","indexed":false,"internalType":"uint256"}],"anonymous":false},{"type":"event","name":"RebalanceRequestAdded","inputs":[{"name":"validator","type":"address","indexed":true,"internalType":"address"},{"name":"amount","type":"uint256","indexed":false,"internalType":"uint256"}],"anonymous":false},{"type":"event","name":"RebalanceRequestClosed","inputs":[{"name":"validator","type":"address","indexed":true,"internalType":"address"},{"name":"amount","type":"uint256","indexed":false,"internalType":"uint256"}],"anonymous":false},{"type":"event","name":"RewardEventReported","inputs":[{"name":"validator","type":"address","indexed":true,"internalType":"address"},{"name":"amount","type":"uint256","indexed":false,"internalType":"uint256"}],"anonymous":false},{"type":"event","name":"RoleAdminChanged","inputs":[{"name":"role","type":"bytes32","indexed":true,"internalType":"bytes32"},{"name":"previousAdminRole","type":"bytes32","indexed":true,"internalType":"bytes32"},{"name":"newAdminRole","type":"bytes32","indexed":true,"internalType":"bytes32"}],"anonymous":false},{"type":"event","name":"RoleGranted","inputs":[{"name":"role","type":"bytes32","indexed":true,"internalType":"bytes32"},{"name":"account","type":"address","indexed":true,"internalType":"address"},{"name":"sender","type":"address","indexed":true,"internalType":"address"}],"anonymous":false},{"type":"event","name":"RoleRevoked","inputs":[{"name":"role","type":"bytes32","indexed":true,"internalType":"bytes32"},{"name":"account","type":"address","indexed":true,"internalType":"address"},{"name":"sender","type":"address","indexed":true,"internalType":"address"}],"anonymous":false},{"type":"event","name":"SlashingEventReported","inputs":[{"name":"validator","type":"address","indexed":true,"internalType":"address"},{"name":"amount","type":"uint256","indexed":false,"internalType":"uint256"}],"anonymous":false},{"type":"event","name":"StakeLimitsUpdated","inputs":[{"name":"minLimit","type":"uint256","indexed":false,"internalType":"uint256"},{"name":"maxLimit","type":"uint256","indexed":false,"internalType":"uint256"}],"anonymous":false},{"type":"event","name":"StakeRebalanced","inputs":[{"name":"validator","type":"address","indexed":true,"internalType":"address"},{"name":"newStake","type":"uint256","indexed":false,"internalType":"uint256"}],"anonymous":false},{"type":"event","name":"ValidatorActivated","inputs":[{"name":"validator","type":"address","indexed":true,"internalType":"address"}],"anonymous":false},{"type":"event","name":"ValidatorAdded","inputs":[{"name":"validator","type":"address","indexed":true,"internalType":"address"}],"anonymous":false},{"type":"event","name":"ValidatorDeactivated","inputs":[{"name":"validator","type":"address","indexed":true,"internalType":"address"}],"anonymous":false},{"type":"event","name":"ValidatorPerformanceUpdated","inputs":[{"name":"validator","type":"address","indexed":true,"internalType":"address"},{"name":"timestamp","type":"uint256","indexed":false,"internalType":"uint256"},{"name":"blockNumber","type":"uint256","indexed":false,"internalType":"uint256"}],"anonymous":false},{"type":"event","name":"ValidatorReactivated","inputs":[{"name":"validator","type":"address","indexed":true,"internalType":"address"}],"anonymous":false},{"type":"event","name":"ValidatorRemoved","inputs":[{"name":"validator","type":"address","indexed":true,"internalType":"address"}],"anonymous":false},{"type":"event","name":"ValidatorScoreUpdated","inputs":[{"name":"validator","type":"address","indexed":true,"internalType":"address"},{"name":"totalScore","type":"uint256","indexed":false,"internalType":"uint256"}],"anonymous":false},{"type":"error","name":"AccessControlBadConfirmation","inputs":[]},{"type":"error","name":"AccessControlUnauthorizedAccount","inputs":[{"name":"account","type":"address","internalType":"address"},{"name":"neededRole","type":"bytes32","internalType":"bytes32"}]},{"type":"error","name":"EnumerableMapNonexistentKey","inputs":[{"name":"key","type":"bytes32","internalType":"bytes32"}]},{"type":"error","name":"InvalidInitialization","inputs":[]},{"type":"error","name":"NotInitializing","inputs":[]},{"type":"error","name":"ReentrancyGuardReentrantCall","inputs":[]}],"bytecode":{"object":"0x6080806040523460aa575f516020612d705f395f51905f525460ff8160401c16609b576002600160401b03196001600160401b038216016049575b604051612cc190816100af8239f35b6001600160401b0319166001600160401b039081175f516020612d705f395f51905f525581527fc7f505b2f371ae2175ee4913f4499e1f2633a7b5936321eed1cdaeb6115181d290602090a15f80603a565b63f92ee8a960e01b5f5260045ffd5b5f80fdfe6080806040526004361015610012575f80fd5b5f905f3560e01c90816301ffc9a714611f73575080630d2bd90914611f075780630e15561a14611eea5780630eb9acea14611bde5780630f43a67714611bc0578063248a9ca314611b805780632b29376814611aab5780632f2ff15d14611a6057806332e0aa1f1461195e57806336568abe1461191957806337ce96ac146118535780634db69d261461181c5780634f1811dd1461177f57806357afa91c1461171e578063631f15a9146116fa5780637623a74e146115aa578063825b7477146114d7578063886f1195146114b05780638ac7834b1461143f5780638e87ce2d1461140b5780638f50bd13146113c85780639010d07c1461137657806391d1485414611320578063a217fddf14611304578063a3246ad314611248578063aaa54e0d1461110c578063b1845c56146110d3578063b46e552014610f32578063ba50b87914610d89578063bfc69e1c14610d61578063bffe348614610d20578063ca15c87314610cea578063d547741f14610c96578063da13ffbf14610c5d578063e1f1c4a714610c40578063e47c355b146108b9578063ec87621c14610891578063f30720d614610873578063f5a9f94a146107eb578063f8c8765e1461044d5763fcf126d6146101e1575f80fd5b3461044a5760c036600319011261044a576101fa611fe0565b8154604051635b14f18360e01b815230600482015260248035949360843593606435936044359360a4359392602091839182906001600160a01b03165afa90811561043f5790610252918891610410575b50156120f3565b61025a612444565b61026b6102668261227f565b6121f0565b61271083111580610404575b806103f8575b806103ec575b156103af576001600160a01b0316936102f361029e86612a1e565b6102ed60ff60066102ae8461203d565b5001541691604051926102c08461209d565b8b84528760208501528860408501528560608501528660808501524260a0850152151560c084015261203d565b90612349565b6040519360c085019785891067ffffffffffffffff8a111761039b5760059596979860405286526020860193845260408601908152606086019182526080860192835260a0860193428552878952856020526040892096518755516001870155516002860155516003850155516004840155519101557f5fccbb07a0dab375247a9d144c14a3db4061295b18e45d352478c9f6edb6a3c860408051428152436020820152a280f35b634e487b7160e01b88526041600452602488fd5b60405162461bcd60e51b815260206004820152601560248201527453636f72652065786365656473206d6178696d756d60581b6044820152606490fd5b50612710821115610283565b5061271085111561027d565b50612710841115610277565b610432915060203d602011610438575b61042a81836120b9565b8101906120db565b5f61024b565b503d610420565b6040513d89823e3d90fd5b80fd5b503461044a57608036600319011261044a57610467611fe0565b61046f611ff6565b90604435906001600160a01b038216908183036107e7576064356001600160a01b03811693908490036107e3575f516020612c6c5f395f51905f52549460ff8660401c16159567ffffffffffffffff8116801590816107db575b60011490816107d1575b1590816107c8575b506107b95767ffffffffffffffff1981166001175f516020612c6c5f395f51905f52558661078d575b506001600160a01b038316928315610750576001600160a01b03821691821561070b5785156106cd578615610688576105829461056c61057793610546612a93565b61054e612a93565b610556612a93565b60015f516020612c2c5f395f51905f525561270f565b610660575b506127ab565b61062b575b50612851565b6105f6575b5082546001600160a01b03191617825561059e5780f35b68ff0000000000000000195f516020612c6c5f395f51905f5254165f516020612c6c5f395f51905f52557fc7f505b2f371ae2175ee4913f4499e1f2633a7b5936321eed1cdaeb6115181d2602060405160018152a180f35b610624905f516020612c4c5f395f51905f5285525f516020612bcc5f395f51905f5260205260408520612b5e565b505f610587565b610659905f516020612bec5f395f51905f5288525f516020612bcc5f395f51905f5260205260408820612b5e565b505f61057c565b610681908a80525f516020612bcc5f395f51905f5260205260408b20612b5e565b505f610571565b60405162461bcd60e51b815260206004820152601760248201527f496e76616c6964207061757365722072656769737472790000000000000000006044820152606490fd5b60405162461bcd60e51b8152602060048201526016602482015275496e76616c6964206f7261636c65206164647265737360501b6044820152606490fd5b60405162461bcd60e51b815260206004820152601760248201527f496e76616c6964206d616e6167657220616464726573730000000000000000006044820152606490fd5b60405162461bcd60e51b8152602060048201526015602482015274496e76616c69642061646d696e206164647265737360581b6044820152606490fd5b68ffffffffffffffffff191668010000000000000001175f516020612c6c5f395f51905f52555f610504565b63f92ee8a960e01b8852600488fd5b9050155f6104db565b303b1591506104d3565b8891506104c9565b8580fd5b8480fd5b503461044a57602036600319011261044a57608061084661084061083b6001600160a01b03610818611fe0565b16610836610831825f52600a60205260405f2054151590565b612233565b612a1e565b61203d565b5061219b565b60208101519060408101519083606082015191015191604051938452602084015260408301526060820152f35b503461044a578060031936011261044a576020600154604051908152f35b503461044a578060031936011261044a5760206040515f516020612bec5f395f51905f528152f35b503461044a57606036600319011261044a576108d3611fe0565b9060243567ffffffffffffffff8111610c3c576108f490369060040161200c565b9260443567ffffffffffffffff8111610c385761091590369060040161200c565b8454604051635b14f18360e01b8152306004820152919492939190602090829060249082906001600160a01b03165afa908115610c2d579061095e9187916104105750156120f3565b6109666123b0565b61096e6123e8565b838603610bf6578515610bc2576001600160a01b0316845b868110610a6b5750803b156107e7576040519363c2ef1d9360e01b855286604486016040600488015252606485019286975b808910610a3c57505084830360031901602486015280835294955085946001600160fb1b0381116107e3578560208682968196829560051b809285830137010301925af18015610a3157610a1c575b5060015f516020612c2c5f395f51905f525580f35b81610a26916120b9565b61044a57805f610a07565b6040513d84823e3d90fd5b909384356001600160a01b03811690819003610a6757602082819260019452019501980197906109b8565b8880fd5b610a916001600160a01b03610a89610a84848b88612134565b612144565b1615156122fd565b610a9f610a84828986612134565b90610aab818787612134565b359160018060a01b0316808852600d602052610acb6040892054156122b1565b8215610b7d577f6154de7bd286a60f27d1045c5314775291c7eaae5a4b57a2a792ec28d68eac356020600194610b09610b0385612a62565b50612233565b604051610b158161206d565b8781528281018581526040808301848152878f5260048652908e20925183546001600160a01b031990811660a08c901b8c900392831617855592518a850180549094169116179091555160029190910155610b6f84612b0e565b50604051908152a201610986565b60405162461bcd60e51b815260206004820152601960248201527f496e76616c6964207769746864726177616c20616d6f756e74000000000000006044820152606490fd5b60405162461bcd60e51b815260206004820152600c60248201526b456d7074792061727261797360a01b6044820152606490fd5b60405162461bcd60e51b815260206004820152600f60248201526e098cadccee8d040dad2e6dac2e8c6d608b1b6044820152606490fd5b6040513d88823e3d90fd5b8380fd5b5080fd5b503461044a578060031936011261044a5760206040516127108152f35b503461044a57602036600319011261044a576020906040906001600160a01b03610c85611fe0565b168152600683522054604051908152f35b503461044a57604036600319011261044a57610ce6600435610cb6611ff6565b90610ce1610cdc825f525f516020612c0c5f395f51905f52602052600160405f20015490565b6124a0565b61252c565b5080f35b503461044a57602036600319011261044a57604060209160043581525f516020612bcc5f395f51905f5283522054604051908152f35b503461044a57602036600319011261044a576020906001600160a01b03610d45611fe0565b16815260038252604060018060a01b0391205416604051908152f35b503461044a578060031936011261044a5760206040515f516020612c4c5f395f51905f528152f35b503461044a57602036600319011261044a57610da3611fe0565b8154604051635b14f18360e01b815230600482015290602090829060249082906001600160a01b03165afa8015610f2757610de59184916104105750156120f3565b610ded6123b0565b6001600160a01b03165f818152600a6020526040902054610e0f901515612233565b5f516020612bec5f395f51905f5282525f516020612c0c5f395f51905f5260209081526040808420335f908152925290205460ff1615610ef1576006610e6161083b610e5a84612a62565b9190612233565b5001805460ff811615610eac5760ff191690557f23d934bfe7f1275bc6fd70432159c9cc1c0075d069f89da6a40f43bfe7a94ed38280a260015f516020612c2c5f395f51905f525580f35b60405162461bcd60e51b815260206004820152601a60248201527f56616c696461746f7220616c726561647920696e6163746976650000000000006044820152606490fd5b60405162461bcd60e51b815260206004820152600e60248201526d139bdd08185d5d1a1bdc9a5e995960921b6044820152606490fd5b6040513d85823e3d90fd5b503461044a57602036600319011261044a57610f4c611fe0565b8154604051635b14f18360e01b815230600482015290602090829060249082906001600160a01b03165afa8015610f2757610f8e9184916104105750156120f3565b610f966123e8565b6001600160a01b0316610faa8115156122fd565b610fbf815f52600a60205260405f2054151590565b61108e57604051610fcf8161209d565b8281528260208201528260408201528260608201528260808201524260a0820152600160c0820152600854600160401b81101561107a57906102ed82600161101a940160085561203d565b6008545f19810190811161106657818352600b602052604083205561103e81612abe565b507fb2b8c5f713f27009f7a78ec2167999c472e5ee8bc591102da17bc4a6551236c88280a280f35b634e487b7160e01b83526011600452602483fd5b634e487b7160e01b84526041600452602484fd5b60405162461bcd60e51b815260206004820152601860248201527f56616c696461746f7220616c72656164792065786973747300000000000000006044820152606490fd5b503461044a57602036600319011261044a576020906040906001600160a01b036110fb611fe0565b168152600783522054604051908152f35b503461044a57604036600319011261044a57611126611fe0565b61112e611ff6565b8254604051635b14f18360e01b815230600482015291929190602090829060249082906001600160a01b03165afa801561123d576111739185916104105750156120f3565b61117b6123e8565b6111876102668361227f565b6001600160a01b03169081156111f8578183526003602081815260408086205485875292909152842080546001600160a01b0319166001600160a01b03938416908117909155929116907f5cbf8b4dd601c76e8851d991825e8d0d29d914f78f40fcc8ebddd97d913f149c8480a480f35b60405162461bcd60e51b815260206004820152601760248201527f496e76616c6964207374616b696e67206d616e616765720000000000000000006044820152606490fd5b6040513d86823e3d90fd5b503461044a57602036600319011261044a5760043581525f516020612bcc5f395f51905f5260205260408120604051908160208254918281520190819285526020852090855b8181106112ee57505050826112a49103836120b9565b604051928392602084019060208552518091526040840192915b8181106112cc575050500390f35b82516001600160a01b03168452859450602093840193909201916001016112be565b825484526020909301926001928301920161128e565b503461044a578060031936011261044a57602090604051908152f35b503461044a57604036600319011261044a57604061133c611ff6565b9160043581525f516020612c0c5f395f51905f52602052209060018060a01b03165f52602052602060ff60405f2054166040519015158152f35b503461044a57604036600319011261044a576113af60209160043581525f516020612bcc5f395f51905f5283526040602435912061256e565b905460405160039290921b1c6001600160a01b03168152f35b503461044a57602036600319011261044a5760206114016001600160a01b036113ef611fe0565b165f52600d60205260405f2054151590565b6040519015158152f35b503461044a57602036600319011261044a57602061143561083b6001600160a01b03610818611fe0565b5054604051908152f35b503461044a57602036600319011261044a5760c0906040906001600160a01b03611467611fe0565b16815260056020522080549060018101549060028101546003820154906005600484015493015493604051958652602086015260408501526060840152608083015260a0820152f35b503461044a578060031936011261044a57546040516001600160a01b039091168152602090f35b503461044a57604036600319011261044a576114f1611fe0565b602435906114fd612444565b6115096102668261227f565b811561156d5760207fd36143b3ca1520d3b9e429976a829d6bc40c6b097d16399efae03a37f310ae499161153f84600254612158565b60025560018060a01b0316928385526007825260408520611561828254612158565b9055604051908152a280f35b60405162461bcd60e51b8152602060048201526015602482015274125b9d985b1a59081c995dd85c9908185b5bdd5b9d605a1b6044820152606490fd5b503461044a57602036600319011261044a576115c4611fe0565b8154604051635b14f18360e01b815230600482015290602090829060249082906001600160a01b03165afa8015610f27576116069184916104105750156120f3565b61160e6123b0565b6116166123e8565b6001600160a01b03165f818152600a6020526040902054611638901515612233565b600661164961083b610e5a84612a62565b5001805460ff81166116b557600190611676611670855f52600d60205260405f2054151590565b156122b1565b60ff19161790557f65cf6d2b9cf96b1ffffa32041ec7c360f76b05f5f4f5e13c7f19495246d6f4f48280a260015f516020612c2c5f395f51905f525580f35b60405162461bcd60e51b815260206004820152601860248201527f56616c696461746f7220616c72656164792061637469766500000000000000006044820152606490fd5b503461044a57602036600319011261044a576020611401611719611fe0565b61227f565b503461044a57602036600319011261044a576060906040906001600160a01b03611746611fe0565b16815260046020522060018060a01b0381541690600260018060a01b036001830154169101549060405192835260208301526040820152f35b503461044a57602036600319011261044a5760e06117cf61084061083b6117a4611fe0565b6117ac612165565b506001600160a01b03165f818152600a6020526040902054610836901515612233565b61181a604051809260c08091805184526020810151602085015260408101516040850152606081015160608501526080810151608085015260a081015160a085015201511515910152565bf35b503461044a57602036600319011261044a576020600561184861083b6001600160a01b03610818611fe0565b500154604051908152f35b503461044a57604036600319011261044a5761186d611fe0565b60243590611879612444565b6118856102668261227f565b81156118dd5760207f63ce9927e6e9c82f626f47fe72a77d38f6d8c9bf9d49e4584acf3e90b1946a1a916118bb84600154612158565b60015560018060a01b0316928385526006825260408520611561828254612158565b60405162461bcd60e51b8152602060048201526014602482015273125b9d985b1a59081cdb185cda08185b5bdd5b9d60621b6044820152606490fd5b503461044a57604036600319011261044a57611933611ff6565b336001600160a01b0382160361194f57610ce69060043561252c565b63334bd91960e11b8252600482fd5b503461044a57602036600319011261044a576004359061197c612165565b50600854821015611a2557600954821015611a115761181a6119bb6108406101009460098552806020862001548560031b1c809552600b60205261203d565b6040519260018060a01b03168352602083019060c08091805184526020810151602085015260408101516040850152606081015160608501526080810151608085015260a081015160a085015201511515910152565b634e487b7160e01b81526032600452602490fd5b60405162461bcd60e51b8152602060048201526013602482015272496e646578206f7574206f6620626f756e647360681b6044820152606490fd5b503461044a57604036600319011261044a57610ce6600435611a80611ff6565b90611aa6610cdc825f525f516020612c0c5f395f51905f52602052600160405f20015490565b6124e6565b503461044a57602036600319011261044a576001600160a01b03611acd611fe0565b168152600360205260409020546001600160a01b03168015611b4757611af28161227f565b15611b0257602090604051908152f35b60405162461bcd60e51b815260206004820152601e60248201527f44656c6567617465642076616c696461746f72206e6f742061637469766500006044820152606490fd5b60405162461bcd60e51b8152602060048201526011602482015270139bc819195b1959d85d1a5bdb881cd95d607a1b6044820152606490fd5b503461044a57602036600319011261044a576020611bb86004355f525f516020612c0c5f395f51905f52602052600160405f20015490565b604051908152f35b503461044a578060031936011261044a576020600854604051908152f35b5034611d05576040366003190112611d0557611bf8611fe0565b60243567ffffffffffffffff8111611d0557611c1890369060040161200c565b5f54604051635b14f18360e01b815230600482015291939190602090829060249082906001600160a01b03165afa8015611cfa57611c5d915f916104105750156120f3565b611c656123b0565b611c6d6123e8565b600c5415611eaf578215611e7c576001600160a01b0316915f918291905b818310611d095750505080611cb0575b8260015f516020612c2c5f395f51905f525580f35b813b15611d05575f9160248392604051948593849263296e882960e21b845260048401525af18015611cfa57611ce7575b80611c9b565b611cf391505f906120b9565b5f5f611ce1565b6040513d5f823e3d90fd5b5f80fd5b91929091906001600160a01b03611d24610a84868686612134565b1693611d3b855f52600d60205260405f2054151590565b15611e4257845f52600460205260405f20948660405196611d5b8861206d565b80546001600160a01b03908116808a52600183015490911660208a0152600290910154604090980197885203611def577f3fb733198c279e91bafa2fdf515f5ef58924785e1326715671cc7b4c92d743906020611dbc600195895190612158565b97835f52600482525f60026040822082815582898201550155611dde84612583565b5051604051908152a2019190611c8b565b60405162461bcd60e51b815260206004820152602560248201527f496e76616c6964207374616b696e67206d616e6167657220666f7220726562616044820152646c616e636560d81b6064820152608490fd5b60405162461bcd60e51b8152602060048201526012602482015271139bc81c195b991a5b99c81c995c5d595cdd60721b6044820152606490fd5b60405162461bcd60e51b815260206004820152600b60248201526a456d70747920617272617960a81b6044820152606490fd5b60405162461bcd60e51b81526020600482015260136024820152724e6f2070656e64696e6720726571756573747360681b6044820152606490fd5b34611d05575f366003190112611d05576020600254604051908152f35b34611d05575f366003190112611d05575f6008545f5b818110611f2f57602083604051908152f35b60ff6006611f3c8361203d565b50015416611f4d575b600101611f1d565b915f198114611f5f5760010191611f45565b634e487b7160e01b5f52601160045260245ffd5b34611d05576020366003190112611d05576004359063ffffffff60e01b8216809203611d0557602091635a05180f60e01b8114908115611fb5575b5015158152f35b637965db0b60e01b811491508115611fcf575b5083611fae565b6301ffc9a760e01b14905083611fc8565b600435906001600160a01b0382168203611d0557565b602435906001600160a01b0382168203611d0557565b9181601f84011215611d055782359167ffffffffffffffff8311611d05576020808501948460051b010111611d0557565b6008548110156120595760085f52600760205f20910201905f90565b634e487b7160e01b5f52603260045260245ffd5b6060810190811067ffffffffffffffff82111761208957604052565b634e487b7160e01b5f52604160045260245ffd5b60e0810190811067ffffffffffffffff82111761208957604052565b90601f8019910116810190811067ffffffffffffffff82111761208957604052565b90816020910312611d0557518015158103611d055790565b156120fa57565b60405162461bcd60e51b815260206004820152601260248201527110dbdb9d1c9858dd081a5cc81c185d5cd95960721b6044820152606490fd5b91908110156120595760051b0190565b356001600160a01b0381168103611d055790565b91908201809211611f5f57565b604051906121728261209d565b5f60c0838281528260208201528260408201528260608201528260808201528260a08201520152565b906040516121a88161209d565b60c060ff600683958054855260018101546020860152600281015460408601526003810154606086015260048101546080860152600581015460a08601520154161515910152565b156121f757565b60405162461bcd60e51b815260206004820152601460248201527356616c696461746f72206e6f742061637469766560601b6044820152606490fd5b1561223a57565b60405162461bcd60e51b815260206004820152601860248201527f56616c696461746f7220646f6573206e6f7420657869737400000000000000006044820152606490fd5b60066122aa61083b60ff9360018060a01b0316610836610831825f52600a60205260405f2054151590565b5001541690565b156122b857565b60405162461bcd60e51b815260206004820152601f60248201527f56616c696461746f72206861732070656e64696e6720726562616c616e6365006044820152606490fd5b1561230457565b60405162461bcd60e51b815260206004820152601960248201527f496e76616c69642076616c696461746f722061646472657373000000000000006044820152606490fd5b9061239d57600660c091835181556020840151600182015560408401516002820155606084015160038201556080840151600482015560a0840151600582015501910151151560ff80198354169116179055565b634e487b7160e01b5f525f60045260245ffd5b60025f516020612c2c5f395f51905f5254146123d95760025f516020612c2c5f395f51905f5255565b633ee5aeb560e01b5f5260045ffd5b335f9081527f06484cc59dc38e4f67c31122333a17ca81b3ca18cdf02bfc298072fa52b0316a602052604090205460ff161561242057565b63e2517d3f60e01b5f52336004525f516020612bec5f395f51905f5260245260445ffd5b335f9081527f6a07288dad4cb198070ae9ab0d91c908f3652738923841b35a5b72d3571a1cec602052604090205460ff161561247c57565b63e2517d3f60e01b5f52336004525f516020612c4c5f395f51905f5260245260445ffd5b5f8181525f516020612c0c5f395f51905f526020908152604080832033845290915290205460ff16156124d05750565b63e2517d3f60e01b5f523360045260245260445ffd5b6124f082826128f7565b91826124fb57505090565b5f9182525f516020612bcc5f395f51905f526020526040909120612528916001600160a01b031690612b5e565b5090565b6125368282612982565b918261254157505090565b5f9182525f516020612bcc5f395f51905f526020526040909120612528916001600160a01b03169061265e565b8054821015612059575f5260205f2001905f90565b5f818152600d60205260409020548015612658575f198101818111611f5f57600c545f19810191908211611f5f5781810361260a575b505050600c5480156125f6575f19016125d381600c61256e565b8154905f199060031b1b19169055600c555f52600d6020525f6040812055600190565b634e487b7160e01b5f52603160045260245ffd5b61264261261b61262c93600c61256e565b90549060031b1c928392600c61256e565b819391549060031b91821b915f19901b19161790565b90555f52600d60205260405f20555f80806125b9565b50505f90565b906001820191815f528260205260405f20548015155f14612707575f198101818111611f5f5782545f19810191908211611f5f578181036126d2575b505050805480156125f6575f1901906126b3828261256e565b8154905f199060031b1b19169055555f526020525f6040812055600190565b6126f26126e261262c938661256e565b90549060031b1c9283928661256e565b90555f528360205260405f20555f808061269a565b505050505f90565b6001600160a01b0381165f9081527fb7db2dd08fcb62d0c9e08c51941cae53c267786a0b75803fb7960902fc8ef97d602052604090205460ff166127a6576001600160a01b03165f8181527fb7db2dd08fcb62d0c9e08c51941cae53c267786a0b75803fb7960902fc8ef97d60205260408120805460ff191660011790553391905f516020612bac5f395f51905f528180a4600190565b505f90565b6001600160a01b0381165f9081527f06484cc59dc38e4f67c31122333a17ca81b3ca18cdf02bfc298072fa52b0316a602052604090205460ff166127a6576001600160a01b03165f8181527f06484cc59dc38e4f67c31122333a17ca81b3ca18cdf02bfc298072fa52b0316a60205260408120805460ff191660011790553391905f516020612bec5f395f51905f52905f516020612bac5f395f51905f529080a4600190565b6001600160a01b0381165f9081527f6a07288dad4cb198070ae9ab0d91c908f3652738923841b35a5b72d3571a1cec602052604090205460ff166127a6576001600160a01b03165f8181527f6a07288dad4cb198070ae9ab0d91c908f3652738923841b35a5b72d3571a1cec60205260408120805460ff191660011790553391905f516020612c4c5f395f51905f52905f516020612bac5f395f51905f529080a4600190565b5f8181525f516020612c0c5f395f51905f52602090815260408083206001600160a01b038616845290915290205460ff16612658575f8181525f516020612c0c5f395f51905f52602090815260408083206001600160a01b0395909516808452949091528120805460ff19166001179055339291905f516020612bac5f395f51905f529080a4600190565b5f8181525f516020612c0c5f395f51905f52602090815260408083206001600160a01b038616845290915290205460ff1615612658575f8181525f516020612c0c5f395f51905f52602090815260408083206001600160a01b0395909516808452949091528120805460ff19169055339291907ff6391f5c32d9c69d2a47ea670b442974b53935d1edc7fd64eb21e047a839171b9080a4600190565b805f52600b60205260405f205490811580612a4e575b612a3c575090565b63015ab34360e11b5f5260045260245ffd5b50805f52600a60205260405f205415612a34565b805f52600b60205260405f205480155f14612a8b57505f52600a60205260405f20541515905f90565b600192909150565b60ff5f516020612c6c5f395f51905f525460401c1615612aaf57565b631afcd79f60e31b5f5260045ffd5b805f52600a60205260405f2054155f146127a657600954600160401b81101561208957612af761262c826001859401600955600961256e565b9055600954905f52600a60205260405f2055600190565b805f52600d60205260405f2054155f146127a657600c54600160401b81101561208957612b4761262c826001859401600c55600c61256e565b9055600c54905f52600d60205260405f2055600190565b5f82815260018201602052604090205461265857805490600160401b8210156120895782612b9661262c84600180960185558461256e565b90558054925f520160205260405f205560019056fe2f8788117e7eff1d82e926ec794901d17c78024a50270940304540a733656f0dc1f6fe24621ce81ec5827caf0253cadb74709b061630e6b55e82371705932000241ecf16d79d0f8dbfb92cbc07fe17840425976cf0667f022fe9877caa831b0802dd7bc7dec4dceedda775e58dd541e08a116c6c53815c0bd028192f7b6268009b779b17422d0df92223018b32b4d1fa46e071723d6817e2486d003becc55f00ced6982f480260bdd8ad5cb18ff2854f0306d78d904ad6cc107e8f3a0f526c18f0c57e16840df040f15088dc2f81fe391c3923bec73e23a9662efc9c229c6a00a264697066735822122047d93f54767b49e0e094a2b696ad58e38d550e038a64f4d8043cec7cfaa1d83f64736f6c634300081c0033f0c57e16840df040f15088dc2f81fe391c3923bec73e23a9662efc9c229c6a00","linkReferences":{}},"methodIdentifiers":{"BASIS_POINTS()":"e1f1c4a7","DEFAULT_ADMIN_ROLE()":"a217fddf","MANAGER_ROLE()":"ec87621c","ORACLE_MANAGER_ROLE()":"bfc69e1c","activateValidator(address)":"b46e5520","activeValidatorsCount()":"0d2bd909","closeRebalanceRequests(address,address[])":"0eb9acea","deactivateValidator(address)":"ba50b879","delegations(address)":"bffe3486","getDelegation(address)":"2b293768","getRoleAdmin(bytes32)":"248a9ca3","getRoleMember(bytes32,uint256)":"9010d07c","getRoleMemberCount(bytes32)":"ca15c873","getRoleMembers(bytes32)":"a3246ad3","grantRole(bytes32,address)":"2f2ff15d","hasPendingRebalance(address)":"8f50bd13","hasRole(bytes32,address)":"91d14854","initialize(address,address,address,address)":"f8c8765e","pauserRegistry()":"886f1195","reactivateValidator(address)":"7623a74e","rebalanceWithdrawal(address,address[],uint256[])":"e47c355b","renounceRole(bytes32,address)":"36568abe","reportRewardEvent(address,uint256)":"825b7477","reportSlashingEvent(address,uint256)":"37ce96ac","revokeRole(bytes32,address)":"d547741f","setDelegation(address,address)":"aaa54e0d","supportsInterface(bytes4)":"01ffc9a7","totalRewards()":"0e15561a","totalSlashing()":"f30720d6","updateValidatorPerformance(address,uint256,uint256,uint256,uint256,uint256)":"fcf126d6","validatorActiveState(address)":"631f15a9","validatorAt(uint256)":"32e0aa1f","validatorBalance(address)":"8e87ce2d","validatorCount()":"0f43a677","validatorInfo(address)":"4f1811dd","validatorLastUpdateTime(address)":"4db69d26","validatorPerformance(address)":"8ac7834b","validatorRebalanceRequests(address)":"57afa91c","validatorRewards(address)":"b1845c56","validatorScores(address)":"f5a9f94a","validatorSlashing(address)":"da13ffbf"},"id":91}