{"abi":[{"type":"constructor","inputs":[],"stateMutability":"nonpayable"},{"type":"function","name":"BURNER_ROLE","inputs":[],"outputs":[{"name":"","type":"bytes32","internalType":"bytes32"}],"stateMutability":"view"},{"type":"function","name":"DEFAULT_ADMIN_ROLE","inputs":[],"outputs":[{"name":"","type":"bytes32","internalType":"bytes32"}],"stateMutability":"view"},{"type":"function","name":"DOMAIN_SEPARATOR","inputs":[],"outputs":[{"name":"","type":"bytes32","internalType":"bytes32"}],"stateMutability":"view"},{"type":"function","name":"MINTER_ROLE","inputs":[],"outputs":[{"name":"","type":"bytes32","internalType":"bytes32"}],"stateMutability":"view"},{"type":"function","name":"allowance","inputs":[{"name":"owner","type":"address","internalType":"address"},{"name":"spender","type":"address","internalType":"address"}],"outputs":[{"name":"","type":"uint256","internalType":"uint256"}],"stateMutability":"view"},{"type":"function","name":"approve","inputs":[{"name":"spender","type":"address","internalType":"address"},{"name":"value","type":"uint256","internalType":"uint256"}],"outputs":[{"name":"","type":"bool","internalType":"bool"}],"stateMutability":"nonpayable"},{"type":"function","name":"balanceOf","inputs":[{"name":"account","type":"address","internalType":"address"}],"outputs":[{"name":"","type":"uint256","internalType":"uint256"}],"stateMutability":"view"},{"type":"function","name":"burn","inputs":[{"name":"from","type":"address","internalType":"address"},{"name":"amount","type":"uint256","internalType":"uint256"}],"outputs":[],"stateMutability":"nonpayable"},{"type":"function","name":"decimals","inputs":[],"outputs":[{"name":"","type":"uint8","internalType":"uint8"}],"stateMutability":"view"},{"type":"function","name":"eip712Domain","inputs":[],"outputs":[{"name":"fields","type":"bytes1","internalType":"bytes1"},{"name":"name","type":"string","internalType":"string"},{"name":"version","type":"string","internalType":"string"},{"name":"chainId","type":"uint256","internalType":"uint256"},{"name":"verifyingContract","type":"address","internalType":"address"},{"name":"salt","type":"bytes32","internalType":"bytes32"},{"name":"extensions","type":"uint256[]","internalType":"uint256[]"}],"stateMutability":"view"},{"type":"function","name":"getRoleAdmin","inputs":[{"name":"role","type":"bytes32","internalType":"bytes32"}],"outputs":[{"name":"","type":"bytes32","internalType":"bytes32"}],"stateMutability":"view"},{"type":"function","name":"getRoleMember","inputs":[{"name":"role","type":"bytes32","internalType":"bytes32"},{"name":"index","type":"uint256","internalType":"uint256"}],"outputs":[{"name":"","type":"address","internalType":"address"}],"stateMutability":"view"},{"type":"function","name":"getRoleMemberCount","inputs":[{"name":"role","type":"bytes32","internalType":"bytes32"}],"outputs":[{"name":"","type":"uint256","internalType":"uint256"}],"stateMutability":"view"},{"type":"function","name":"getRoleMembers","inputs":[{"name":"role","type":"bytes32","internalType":"bytes32"}],"outputs":[{"name":"","type":"address[]","internalType":"address[]"}],"stateMutability":"view"},{"type":"function","name":"grantRole","inputs":[{"name":"role","type":"bytes32","internalType":"bytes32"},{"name":"account","type":"address","internalType":"address"}],"outputs":[],"stateMutability":"nonpayable"},{"type":"function","name":"hasRole","inputs":[{"name":"role","type":"bytes32","internalType":"bytes32"},{"name":"account","type":"address","internalType":"address"}],"outputs":[{"name":"","type":"bool","internalType":"bool"}],"stateMutability":"view"},{"type":"function","name":"initialize","inputs":[{"name":"name","type":"string","internalType":"string"},{"name":"symbol","type":"string","internalType":"string"},{"name":"admin","type":"address","internalType":"address"},{"name":"minter","type":"address","internalType":"address"},{"name":"burner","type":"address","internalType":"address"},{"name":"_pauserRegistry","type":"address","internalType":"address"}],"outputs":[],"stateMutability":"nonpayable"},{"type":"function","name":"mint","inputs":[{"name":"to","type":"address","internalType":"address"},{"name":"amount","type":"uint256","internalType":"uint256"}],"outputs":[],"stateMutability":"nonpayable"},{"type":"function","name":"name","inputs":[],"outputs":[{"name":"","type":"string","internalType":"string"}],"stateMutability":"view"},{"type":"function","name":"nonces","inputs":[{"name":"owner","type":"address","internalType":"address"}],"outputs":[{"name":"","type":"uint256","internalType":"uint256"}],"stateMutability":"view"},{"type":"function","name":"pauserRegistry","inputs":[],"outputs":[{"name":"","type":"address","internalType":"contract IPauserRegistry"}],"stateMutability":"view"},{"type":"function","name":"permit","inputs":[{"name":"owner","type":"address","internalType":"address"},{"name":"spender","type":"address","internalType":"address"},{"name":"value","type":"uint256","internalType":"uint256"},{"name":"deadline","type":"uint256","internalType":"uint256"},{"name":"v","type":"uint8","internalType":"uint8"},{"name":"r","type":"bytes32","internalType":"bytes32"},{"name":"s","type":"bytes32","internalType":"bytes32"}],"outputs":[],"stateMutability":"nonpayable"},{"type":"function","name":"renounceRole","inputs":[{"name":"role","type":"bytes32","internalType":"bytes32"},{"name":"callerConfirmation","type":"address","internalType":"address"}],"outputs":[],"stateMutability":"nonpayable"},{"type":"function","name":"revokeRole","inputs":[{"name":"role","type":"bytes32","internalType":"bytes32"},{"name":"account","type":"address","internalType":"address"}],"outputs":[],"stateMutability":"nonpayable"},{"type":"function","name":"supportsInterface","inputs":[{"name":"interfaceId","type":"bytes4","internalType":"bytes4"}],"outputs":[{"name":"","type":"bool","internalType":"bool"}],"stateMutability":"view"},{"type":"function","name":"symbol","inputs":[],"outputs":[{"name":"","type":"string","internalType":"string"}],"stateMutability":"view"},{"type":"function","name":"totalSupply","inputs":[],"outputs":[{"name":"","type":"uint256","internalType":"uint256"}],"stateMutability":"view"},{"type":"function","name":"transfer","inputs":[{"name":"to","type":"address","internalType":"address"},{"name":"value","type":"uint256","internalType":"uint256"}],"outputs":[{"name":"","type":"bool","internalType":"bool"}],"stateMutability":"nonpayable"},{"type":"function","name":"transferFrom","inputs":[{"name":"from","type":"address","internalType":"address"},{"name":"to","type":"address","internalType":"address"},{"name":"value","type":"uint256","internalType":"uint256"}],"outputs":[{"name":"","type":"bool","internalType":"bool"}],"stateMutability":"nonpayable"},{"type":"event","name":"Approval","inputs":[{"name":"owner","type":"address","indexed":true,"internalType":"address"},{"name":"spender","type":"address","indexed":true,"internalType":"address"},{"name":"value","type":"uint256","indexed":false,"internalType":"uint256"}],"anonymous":false},{"type":"event","name":"EIP712DomainChanged","inputs":[],"anonymous":false},{"type":"event","name":"Initialized","inputs":[{"name":"version","type":"uint64","indexed":false,"internalType":"uint64"}],"anonymous":false},{"type":"event","name":"RoleAdminChanged","inputs":[{"name":"role","type":"bytes32","indexed":true,"internalType":"bytes32"},{"name":"previousAdminRole","type":"bytes32","indexed":true,"internalType":"bytes32"},{"name":"newAdminRole","type":"bytes32","indexed":true,"internalType":"bytes32"}],"anonymous":false},{"type":"event","name":"RoleGranted","inputs":[{"name":"role","type":"bytes32","indexed":true,"internalType":"bytes32"},{"name":"account","type":"address","indexed":true,"internalType":"address"},{"name":"sender","type":"address","indexed":true,"internalType":"address"}],"anonymous":false},{"type":"event","name":"RoleRevoked","inputs":[{"name":"role","type":"bytes32","indexed":true,"internalType":"bytes32"},{"name":"account","type":"address","indexed":true,"internalType":"address"},{"name":"sender","type":"address","indexed":true,"internalType":"address"}],"anonymous":false},{"type":"event","name":"Transfer","inputs":[{"name":"from","type":"address","indexed":true,"internalType":"address"},{"name":"to","type":"address","indexed":true,"internalType":"address"},{"name":"value","type":"uint256","indexed":false,"internalType":"uint256"}],"anonymous":false},{"type":"error","name":"AccessControlBadConfirmation","inputs":[]},{"type":"error","name":"AccessControlUnauthorizedAccount","inputs":[{"name":"account","type":"address","internalType":"address"},{"name":"neededRole","type":"bytes32","internalType":"bytes32"}]},{"type":"error","name":"ECDSAInvalidSignature","inputs":[]},{"type":"error","name":"ECDSAInvalidSignatureLength","inputs":[{"name":"length","type":"uint256","internalType":"uint256"}]},{"type":"error","name":"ECDSAInvalidSignatureS","inputs":[{"name":"s","type":"bytes32","internalType":"bytes32"}]},{"type":"error","name":"ERC20InsufficientAllowance","inputs":[{"name":"spender","type":"address","internalType":"address"},{"name":"allowance","type":"uint256","internalType":"uint256"},{"name":"needed","type":"uint256","internalType":"uint256"}]},{"type":"error","name":"ERC20InsufficientBalance","inputs":[{"name":"sender","type":"address","internalType":"address"},{"name":"balance","type":"uint256","internalType":"uint256"},{"name":"needed","type":"uint256","internalType":"uint256"}]},{"type":"error","name":"ERC20InvalidApprover","inputs":[{"name":"approver","type":"address","internalType":"address"}]},{"type":"error","name":"ERC20InvalidReceiver","inputs":[{"name":"receiver","type":"address","internalType":"address"}]},{"type":"error","name":"ERC20InvalidSender","inputs":[{"name":"sender","type":"address","internalType":"address"}]},{"type":"error","name":"ERC20InvalidSpender","inputs":[{"name":"spender","type":"address","internalType":"address"}]},{"type":"error","name":"ERC2612ExpiredSignature","inputs":[{"name":"deadline","type":"uint256","internalType":"uint256"}]},{"type":"error","name":"ERC2612InvalidSigner","inputs":[{"name":"signer","type":"address","internalType":"address"},{"name":"owner","type":"address","internalType":"address"}]},{"type":"error","name":"InvalidAccountNonce","inputs":[{"name":"account","type":"address","internalType":"address"},{"name":"currentNonce","type":"uint256","internalType":"uint256"}]},{"type":"error","name":"InvalidInitialization","inputs":[]},{"type":"error","name":"NotInitializing","inputs":[]}],"bytecode":{"object":"0x6080806040523460aa575f5160206128975f395f51905f525460ff8160401c16609b576002600160401b03196001600160401b038216016049575b6040516127e890816100af8239f35b6001600160401b0319166001600160401b039081175f5160206128975f395f51905f525581527fc7f505b2f371ae2175ee4913f4499e1f2633a7b5936321eed1cdaeb6115181d290602090a15f80603a565b63f92ee8a960e01b5f5260045ffd5b5f80fdfe6080806040526004361015610012575f80fd5b5f3560e01c90816301ffc9a7146119e25750806306fdde0314611925578063095ea7b3146118ff57806318160ddd146118d657806323b872dd146117fe578063248a9ca3146117c7578063282c51f3146117a05780632f2ff15d14611756578063313ce5671461173b5780633644e5151461171957806336568abe146116d557806340c10f191461153857806370a08231146114f45780637ecebe001461149e57806384b0196e14611354578063886f11951461132d5780639010d07c146112dc57806391d148541461128757806395d89b411461118d5780639dc29fac14610f93578063a217fddf14610f79578063a3246ad314610ebe578063a9059cbb14610e8d578063ca15c87314610e57578063d505accf14610cf5578063d539139314610cce578063d547741f14610c7d578063dd62ed3e14610c365763e56f2fe41461015b575f80fd5b34610c325760c0366003190112610c325760043567ffffffffffffffff8111610c325761018c903690600401611a9f565b60243567ffffffffffffffff8111610c32576101ac903690600401611a9f565b60443593919290916001600160a01b038516808603610c32576064356001600160a01b03811691828203610c32576084356001600160a01b03811695909490868603610c325760a4356001600160a01b0381169890899003610c32575f5160206127935f395f51905f52549960ff8b60401c16159a67ffffffffffffffff811680159081610c2a575b6001149081610c20575b159081610c17575b50610c085767ffffffffffffffff1981166001175f5160206127935f395f51905f52558b610bdc575b508415610b9f578915610b5a578615610b1c578815610ade576102a090610298368587611cdb565b923691611cdb565b906102a9612424565b6102b1612424565b80519067ffffffffffffffff82116107c85781906102dc5f5160206126935f395f51905f5254611acd565b601f8111610a64575b50602090601f83116001146109e6575f926109db575b50508160011b915f199060031b1c1916175f5160206126935f395f51905f52555b80519067ffffffffffffffff82116107c8576103455f5160206126f35f395f51905f5254611acd565b601f811161096c575b50602090601f83116001146108ea57610394949392915f91836108df575b50508160011b915f199060031b1c1916175f5160206126f35f395f51905f52555b3691611cdb565b9761039d612424565b6040988951906103ad8b83611b05565b60018252603160f81b60208301526103c3612424565b80519067ffffffffffffffff82116107c85781906103ee5f5160206126d35f395f51905f5254611acd565b601f8111610865575b50602090601f83116001146107e7575f926107dc575b50508160011b915f199060031b1c1916175f5160206126d35f395f51905f52555b80519067ffffffffffffffff82116107c8576104575f5160206127335f395f51905f5254611acd565b601f8111610759575b50602090601f83116001146106ce5792826105b195936105a6936105bc9a9998965f926106c3575b50508160011b915f199060031b1c1916175f5160206127335f395f51905f52555b5f7fa16a46d94261c7517cc8ff89f61c0ce93598e3c849801011dee649a6a557d100555f7fa16a46d94261c7517cc8ff89f61c0ce93598e3c849801011dee649a6a557d101556104f7612424565b5f5160206127535f395f51905f525f8181525f5160206127735f395f51905f526020528d812060010180549082905590917fbd79b86ffe0ab8e8776151514217cd7cacd52c909f66475c3af44e129f0b00ff8380a45f5160206126535f395f51905f525f8181525f5160206127735f395f51905f526020528d812060010180549082905590917fbd79b86ffe0ab8e8776151514217cd7cacd52c909f66475c3af44e129f0b00ff8380a4611f89565b61069c575b50612025565b610668575b506120cb565b610634575b506bffffffffffffffffffffffff60a01b5f5416175f556105de57005b60207fc7f505b2f371ae2175ee4913f4499e1f2633a7b5936321eed1cdaeb6115181d29168ff0000000000000000195f5160206127935f395f51905f5254165f5160206127935f395f51905f52555160018152a1005b610661905f5160206126535f395f51905f525f525f5160206126735f395f51905f52602052845f2061244f565b505f6105c1565b610695905f5160206127535f395f51905f525f525f5160206126735f395f51905f52602052875f2061244f565b505f6105b6565b6106bc905f80525f5160206126735f395f51905f526020528a5f2061244f565b505f6105ab565b015190505f80610488565b90601f198316915f5160206127335f395f51905f525f52815f20925f5b8181106107415750936105a6936105bc9a99989693600193836105b19a9810610729575b505050811b015f5160206127335f395f51905f52556104a9565b01515f1960f88460031b161c191690555f808061070f565b929360206001819287860151815501950193016106eb565b5f5160206127335f395f51905f525f527f5f9ce34815f8e11431c7bb75a8e6886a91478f7ffc1dbb0a98dc240fddd76b75601f840160051c810191602085106107be575b601f0160051c01905b8181106107b35750610460565b5f81556001016107a6565b909150819061079d565b634e487b7160e01b5f52604160045260245ffd5b015190505f8061040d565b5f5160206126d35f395f51905f525f9081528281209350601f198516905b81811061084d5750908460019594939210610835575b505050811b015f5160206126d35f395f51905f525561042e565b01515f1960f88460031b161c191690555f808061081b565b92936020600181928786015181550195019301610805565b5f5160206126d35f395f51905f525f529091507f42ad5d3e1f2e6e70edcf6d991b8a3023d3fca8047a131592f9edb9fd9b89d57d601f840160051c810191602085106108d5575b90601f859493920160051c01905b8181106108c757506103f7565b5f81558493506001016108ba565b90915081906108ac565b015190505f8061036c565b90601f198316915f5160206126f35f395f51905f525f52815f20925f5b8181106109545750916001939185610394989796941061093c575b505050811b015f5160206126f35f395f51905f525561038d565b01515f1960f88460031b161c191690555f8080610922565b92936020600181928786015181550195019301610907565b5f5160206126f35f395f51905f525f527f46a2803e59a4de4e7a4c574b1243f25977ac4c77d5a1a4a609b5394cebb4a2aa601f840160051c810191602085106109d1575b601f0160051c01905b8181106109c6575061034e565b5f81556001016109b9565b90915081906109b0565b015190505f806102fb565b5f5160206126935f395f51905f525f9081528281209350601f198516905b818110610a4c5750908460019594939210610a34575b505050811b015f5160206126935f395f51905f525561031c565b01515f1960f88460031b161c191690555f8080610a1a565b92936020600181928786015181550195019301610a04565b5f5160206126935f395f51905f525f529091507f2ae08a8e29253f69ac5d979a101956ab8f8d9d7ded63fa7a83b16fc47648eab0601f840160051c81019160208510610ad4575b90601f859493920160051c01905b818110610ac657506102e5565b5f8155849350600101610ab9565b9091508190610aab565b60405162461bcd60e51b8152602060048201526016602482015275496e76616c6964206275726e6572206164647265737360501b6044820152606490fd5b60405162461bcd60e51b8152602060048201526016602482015275496e76616c6964206d696e746572206164647265737360501b6044820152606490fd5b60405162461bcd60e51b815260206004820152601f60248201527f496e76616c6964207061757365722072656769737472792061646472657373006044820152606490fd5b60405162461bcd60e51b8152602060048201526015602482015274496e76616c69642061646d696e206164647265737360581b6044820152606490fd5b68ffffffffffffffffff191668010000000000000001175f5160206127935f395f51905f52555f610270565b63f92ee8a960e01b5f5260045ffd5b9050155f610247565b303b15915061023f565b8d9150610235565b5f80fd5b34610c32576040366003190112610c3257610c4f611a73565b610c60610c5a611a89565b91611ca3565b9060018060a01b03165f52602052602060405f2054604051908152f35b34610c32576040366003190112610c3257610ccc600435610c9c611a89565b90610cc7610cc2825f525f5160206127735f395f51905f52602052600160405f20015490565b611e58565b611ee4565b005b34610c32575f366003190112610c325760206040515f5160206127535f395f51905f528152f35b34610c325760e0366003190112610c3257610d0e611a73565b610d16611a89565b604435906064359260843560ff81168103610c3257844211610e4457610e09610e129160018060a01b03841696875f527f5ab42ced628888259c08ac98db1eb0cf702fc1501344311d8b100cd1bfe4bb0060205260405f20908154916001830190556040519060208201927f6e71edae12b1b97f4d1f60370fef10105fa2faae0126114a169c64845d6126c984528a604084015260018060a01b038916606084015289608084015260a083015260c082015260c08152610dd760e082611b05565b519020610de2612202565b906040519161190160f01b83526002830152602282015260c43591604260a435922061232e565b909291926123b0565b6001600160a01b0316848103610e2d5750610ccc9350611f26565b84906325c0072360e11b5f5260045260245260445ffd5b8463313c898160e11b5f5260045260245ffd5b34610c32576020366003190112610c32576004355f525f5160206126735f395f51905f52602052602060405f2054604051908152f35b34610c32576040366003190112610c3257610eb3610ea9611a73565b6024359033611d21565b602060405160018152f35b34610c32576020366003190112610c32576004355f525f5160206126735f395f51905f5260205260405f20604051806020835491828152019081935f5260205f20905f5b818110610f635750505081610f18910382611b05565b604051918291602083019060208452518091526040830191905f5b818110610f41575050500390f35b82516001600160a01b0316845285945060209384019390920191600101610f33565b8254845260209093019260019283019201610f02565b34610c32575f366003190112610c325760206040515f8152f35b34610c32576040366003190112610c3257610fac611a73565b335f9081527ffcf1b2032b1187d9f2a29150c4a608b3b6f0bdf8dd007801f86a276af50cad926020526040902054602435919060ff1615611169576001600160a01b03168015611156575f54604051635b14f18360e01b815230600482015290602090829060249082906001600160a01b03165afa90811561114b575f91611110575b506110d657805f525f5160206126b35f395f51905f5260205260405f20548281106110bd576020835f947fddf252ad1be2c89b69c2b068fc378daa952ba7f163c4a11628f55a4df523b3ef938587525f5160206126b35f395f51905f528452036040862055805f5160206127135f395f51905f5254035f5160206127135f395f51905f5255604051908152a3005b9063391434e360e21b5f5260045260245260445260645ffd5b60405162461bcd60e51b815260206004820152601260248201527110dbdb9d1c9858dd081a5cc81c185d5cd95960721b6044820152606490fd5b90506020813d602011611143575b8161112b60209383611b05565b81010312610c3257518015158103610c32578361102f565b3d915061111e565b6040513d5f823e3d90fd5b634b637e8f60e11b5f525f60045260245ffd5b63e2517d3f60e01b5f52336004525f5160206126535f395f51905f5260245260445ffd5b34610c32575f366003190112610c32576040515f5f5160206126f35f395f51905f52546111b981611acd565b808452906001811690811561126357506001146111f9575b6111f5836111e181850382611b05565b604051918291602083526020830190611a4f565b0390f35b5f5160206126f35f395f51905f525f9081527f46a2803e59a4de4e7a4c574b1243f25977ac4c77d5a1a4a609b5394cebb4a2aa939250905b808210611249575090915081016020016111e16111d1565b919260018160209254838588010152019101909291611231565b60ff191660208086019190915291151560051b840190910191506111e190506111d1565b34610c32576040366003190112610c32576112a0611a89565b6004355f525f5160206127735f395f51905f5260205260405f209060018060a01b03165f52602052602060ff60405f2054166040519015158152f35b34610c32576040366003190112610c32576004355f525f5160206126735f395f51905f52602052602061131460243560405f20612305565b905460405160039290921b1c6001600160a01b03168152f35b34610c32575f366003190112610c32575f546040516001600160a01b039091168152602090f35b34610c32575f366003190112610c32577fa16a46d94261c7517cc8ff89f61c0ce93598e3c849801011dee649a6a557d100541580611475575b15611438576113dc61139d611b27565b6113a5611bf6565b60206113ea604051926113b88385611b05565b5f84525f368137604051958695600f60f81b875260e08588015260e0870190611a4f565b908582036040870152611a4f565b4660608501523060808501525f60a085015283810360c08501528180845192838152019301915f5b82811061142157505050500390f35b835185528695509381019392810192600101611412565b60405162461bcd60e51b81526020600482015260156024820152741152540dcc4c8e88155b9a5b9a5d1a585b1a5e9959605a1b6044820152606490fd5b507fa16a46d94261c7517cc8ff89f61c0ce93598e3c849801011dee649a6a557d101541561138d565b34610c32576020366003190112610c32576114b7611a73565b60018060a01b03165f527f5ab42ced628888259c08ac98db1eb0cf702fc1501344311d8b100cd1bfe4bb00602052602060405f2054604051908152f35b34610c32576020366003190112610c32576001600160a01b03611515611a73565b165f525f5160206126b35f395f51905f52602052602060405f2054604051908152f35b34610c32576040366003190112610c3257611551611a73565b335f9081527f549fe2656c81d2947b3b913f0a53b9ea86c71e049f3a1b8aa23c09a8a05cb8d46020526040902054602435919060ff16156116b1576001600160a01b031690811561169e575f54604051635b14f18360e01b815230600482015290602090829060249082906001600160a01b03165afa90811561114b575f91611663575b506110d6575f5160206127135f395f51905f52549080820180921161164f5760207fddf252ad1be2c89b69c2b068fc378daa952ba7f163c4a11628f55a4df523b3ef915f935f5160206127135f395f51905f52558484525f5160206126b35f395f51905f52825260408420818154019055604051908152a3005b634e487b7160e01b5f52601160045260245ffd5b90506020813d602011611696575b8161167e60209383611b05565b81010312610c3257518015158103610c3257836115d5565b3d9150611671565b63ec442f0560e01b5f525f60045260245ffd5b63e2517d3f60e01b5f52336004525f5160206127535f395f51905f5260245260445ffd5b34610c32576040366003190112610c32576116ee611a89565b336001600160a01b0382160361170a57610ccc90600435611ee4565b63334bd91960e11b5f5260045ffd5b34610c32575f366003190112610c32576020611733612202565b604051908152f35b34610c32575f366003190112610c3257602060405160128152f35b34610c32576040366003190112610c3257610ccc600435611775611a89565b9061179b610cc2825f525f5160206127735f395f51905f52602052600160405f20015490565b611e9e565b34610c32575f366003190112610c325760206040515f5160206126535f395f51905f528152f35b34610c32576020366003190112610c325760206117336004355f525f5160206127735f395f51905f52602052600160405f20015490565b34610c32576060366003190112610c3257611817611a73565b61181f611a89565b6044359061182c83611ca3565b335f90815260209190915260409020549260018401611850575b610eb39350611d21565b8284106118bb576001600160a01b038116156118a857331561189557610eb39361187982611ca3565b60018060a01b0333165f526020528360405f2091039055611846565b634a1406b160e11b5f525f60045260245ffd5b63e602df0560e01b5f525f60045260245ffd5b8284637dc7a0d960e11b5f523360045260245260445260645ffd5b34610c32575f366003190112610c325760205f5160206127135f395f51905f5254604051908152f35b34610c32576040366003190112610c3257610eb361191b611a73565b6024359033611f26565b34610c32575f366003190112610c32576040515f5f5160206126935f395f51905f525461195181611acd565b80845290600181169081156112635750600114611978576111f5836111e181850382611b05565b5f5160206126935f395f51905f525f9081527f2ae08a8e29253f69ac5d979a101956ab8f8d9d7ded63fa7a83b16fc47648eab0939250905b8082106119c8575090915081016020016111e16111d1565b9192600181602092548385880101520191019092916119b0565b34610c32576020366003190112610c32576004359063ffffffff60e01b8216809203610c3257602091635a05180f60e01b8114908115611a24575b5015158152f35b637965db0b60e01b811491508115611a3e575b5083611a1d565b6301ffc9a760e01b14905083611a37565b805180835260209291819084018484015e5f828201840152601f01601f1916010190565b600435906001600160a01b0382168203610c3257565b602435906001600160a01b0382168203610c3257565b9181601f84011215610c325782359167ffffffffffffffff8311610c325760208381860195010111610c3257565b90600182811c92168015611afb575b6020831014611ae757565b634e487b7160e01b5f52602260045260245ffd5b91607f1691611adc565b90601f8019910116810190811067ffffffffffffffff8211176107c857604052565b604051905f825f5160206126d35f395f51905f525491611b4683611acd565b8083529260018116908115611bd75750600114611b6c575b611b6a92500383611b05565b565b505f5160206126d35f395f51905f525f90815290917f42ad5d3e1f2e6e70edcf6d991b8a3023d3fca8047a131592f9edb9fd9b89d57d5b818310611bbb575050906020611b6a92820101611b5e565b6020919350806001915483858901015201910190918492611ba3565b60209250611b6a94915060ff191682840152151560051b820101611b5e565b604051905f825f5160206127335f395f51905f525491611c1583611acd565b8083529260018116908115611bd75750600114611c3857611b6a92500383611b05565b505f5160206127335f395f51905f525f90815290917f5f9ce34815f8e11431c7bb75a8e6886a91478f7ffc1dbb0a98dc240fddd76b755b818310611c87575050906020611b6a92820101611b5e565b6020919350806001915483858901015201910190918492611c6f565b6001600160a01b03165f9081527f52c63247e1f47db19d5ce0460030c497f067ca4cebf71ba98eeadabe20bace016020526040902090565b92919267ffffffffffffffff82116107c85760405191611d05601f8201601f191660200184611b05565b829481845281830111610c32578281602093845f960137010152565b6001600160a01b0316908115611156576001600160a01b031691821561169e575f54604051635b14f18360e01b815230600482015290602090829060249082906001600160a01b03165afa90811561114b575f91611e1d575b506110d657815f525f5160206126b35f395f51905f5260205260405f2054818110611e0457817fddf252ad1be2c89b69c2b068fc378daa952ba7f163c4a11628f55a4df523b3ef92602092855f525f5160206126b35f395f51905f5284520360405f2055845f525f5160206126b35f395f51905f52825260405f20818154019055604051908152a3565b8263391434e360e21b5f5260045260245260445260645ffd5b90506020813d602011611e50575b81611e3860209383611b05565b81010312610c3257518015158103610c32575f611d7a565b3d9150611e2b565b5f8181525f5160206127735f395f51905f526020908152604080832033845290915290205460ff1615611e885750565b63e2517d3f60e01b5f523360045260245260445ffd5b611ea88282612171565b9182611eb357505090565b5f9182525f5160206126735f395f51905f526020526040909120611ee0916001600160a01b03169061244f565b5090565b611eee8282612269565b9182611ef957505090565b5f9182525f5160206126735f395f51905f526020526040909120611ee0916001600160a01b03169061256d565b916001600160a01b0383169182156118a8576001600160a01b0316928315611895577f8c5be1e5ebec7d5bd14f71427d1e84f3dd0314c0f7b2291e5b200ac8c7c3b92591611f75602092611ca3565b855f5282528060405f2055604051908152a3565b6001600160a01b0381165f9081527fb7db2dd08fcb62d0c9e08c51941cae53c267786a0b75803fb7960902fc8ef97d602052604090205460ff16612020576001600160a01b03165f8181527fb7db2dd08fcb62d0c9e08c51941cae53c267786a0b75803fb7960902fc8ef97d60205260408120805460ff191660011790553391905f5160206126335f395f51905f528180a4600190565b505f90565b6001600160a01b0381165f9081527f549fe2656c81d2947b3b913f0a53b9ea86c71e049f3a1b8aa23c09a8a05cb8d4602052604090205460ff16612020576001600160a01b03165f8181527f549fe2656c81d2947b3b913f0a53b9ea86c71e049f3a1b8aa23c09a8a05cb8d460205260408120805460ff191660011790553391905f5160206127535f395f51905f52905f5160206126335f395f51905f529080a4600190565b6001600160a01b0381165f9081527ffcf1b2032b1187d9f2a29150c4a608b3b6f0bdf8dd007801f86a276af50cad92602052604090205460ff16612020576001600160a01b03165f8181527ffcf1b2032b1187d9f2a29150c4a608b3b6f0bdf8dd007801f86a276af50cad9260205260408120805460ff191660011790553391905f5160206126535f395f51905f52905f5160206126335f395f51905f529080a4600190565b5f8181525f5160206127735f395f51905f52602090815260408083206001600160a01b038616845290915290205460ff166121fc575f8181525f5160206127735f395f51905f52602090815260408083206001600160a01b0395909516808452949091528120805460ff19166001179055339291905f5160206126335f395f51905f529080a4600190565b50505f90565b61220a6124be565b612212612528565b6040519060208201927f8b73c3c69bb8fe3d512ecc4cf759cc79239f7b179b0ffacaa9a75d522b39400f8452604083015260608201524660808201523060a082015260a0815261226360c082611b05565b51902090565b5f8181525f5160206127735f395f51905f52602090815260408083206001600160a01b038616845290915290205460ff16156121fc575f8181525f5160206127735f395f51905f52602090815260408083206001600160a01b0395909516808452949091528120805460ff19169055339291907ff6391f5c32d9c69d2a47ea670b442974b53935d1edc7fd64eb21e047a839171b9080a4600190565b805482101561231a575f5260205f2001905f90565b634e487b7160e01b5f52603260045260245ffd5b91907f7fffffffffffffffffffffffffffffff5d576e7357a4501ddfe92f46681b20a084116123a5579160209360809260ff5f9560405194855216868401526040830152606082015282805260015afa1561114b575f516001600160a01b0381161561239b57905f905f90565b505f906001905f90565b5050505f9160039190565b600481101561241057806123c2575050565b600181036123d95763f645eedf60e01b5f5260045ffd5b600281036123f4575063fce698f760e01b5f5260045260245ffd5b6003146123fe5750565b6335e2f38360e21b5f5260045260245ffd5b634e487b7160e01b5f52602160045260245ffd5b60ff5f5160206127935f395f51905f525460401c161561244057565b631afcd79f60e31b5f5260045ffd5b6001810190825f528160205260405f2054155f146124b7578054680100000000000000008110156107c8576124a461248e826001879401855584612305565b819391549060031b91821b915f19901b19161790565b905554915f5260205260405f2055600190565b5050505f90565b6124c6611b27565b80519081156124d6576020012090565b50507fa16a46d94261c7517cc8ff89f61c0ce93598e3c849801011dee649a6a557d1005480156125035790565b507fc5d2460186f7233c927e7db2dcc703c0e500b653ca82273b7bfad8045d85a47090565b612530611bf6565b8051908115612540576020012090565b50507fa16a46d94261c7517cc8ff89f61c0ce93598e3c849801011dee649a6a557d1015480156125035790565b906001820191815f528260205260405f20548015155f1461262a575f19810181811161164f5782545f1981019190821161164f578181036125f5575b505050805480156125e1575f1901906125c28282612305565b8154905f199060031b1b19169055555f526020525f6040812055600190565b634e487b7160e01b5f52603160045260245ffd5b61261561260561248e9386612305565b90549060031b1c92839286612305565b90555f528360205260405f20555f80806125a9565b505050505f9056fe2f8788117e7eff1d82e926ec794901d17c78024a50270940304540a733656f0d3c11d16cbaffd01df69ce1c404f6340ee057498f5f00246190ea54220576a848c1f6fe24621ce81ec5827caf0253cadb74709b061630e6b55e8237170593200052c63247e1f47db19d5ce0460030c497f067ca4cebf71ba98eeadabe20bace0352c63247e1f47db19d5ce0460030c497f067ca4cebf71ba98eeadabe20bace00a16a46d94261c7517cc8ff89f61c0ce93598e3c849801011dee649a6a557d10252c63247e1f47db19d5ce0460030c497f067ca4cebf71ba98eeadabe20bace0452c63247e1f47db19d5ce0460030c497f067ca4cebf71ba98eeadabe20bace02a16a46d94261c7517cc8ff89f61c0ce93598e3c849801011dee649a6a557d1039f2df0fed2c77648de5860a4cc508cd0818c85b8b8a1ab4ceeef8d981c8956a602dd7bc7dec4dceedda775e58dd541e08a116c6c53815c0bd028192f7b626800f0c57e16840df040f15088dc2f81fe391c3923bec73e23a9662efc9c229c6a00a2646970667358221220363621ae614d7f7abfe7fcec64bd2acd51ff71ee0760ff605dff0fe76fc5d31564736f6c634300081c0033f0c57e16840df040f15088dc2f81fe391c3923bec73e23a9662efc9c229c6a00","linkReferences":{}},"methodIdentifiers":{"BURNER_ROLE()":"282c51f3","DEFAULT_ADMIN_ROLE()":"a217fddf","DOMAIN_SEPARATOR()":"3644e515","MINTER_ROLE()":"d5391393","allowance(address,address)":"dd62ed3e","approve(address,uint256)":"095ea7b3","balanceOf(address)":"70a08231","burn(address,uint256)":"9dc29fac","decimals()":"313ce567","eip712Domain()":"84b0196e","getRoleAdmin(bytes32)":"248a9ca3","getRoleMember(bytes32,uint256)":"9010d07c","getRoleMemberCount(bytes32)":"ca15c873","getRoleMembers(bytes32)":"a3246ad3","grantRole(bytes32,address)":"2f2ff15d","hasRole(bytes32,address)":"91d14854","initialize(string,string,address,address,address,address)":"e56f2fe4","mint(address,uint256)":"40c10f19","name()":"06fdde03","nonces(address)":"7ecebe00","pauserRegistry()":"886f1195","permit(address,address,uint256,uint256,uint8,bytes32,bytes32)":"d505accf","renounceRole(bytes32,address)":"36568abe","revokeRole(bytes32,address)":"d547741f","supportsInterface(bytes4)":"01ffc9a7","symbol()":"95d89b41","totalSupply()":"18160ddd","transfer(address,uint256)":"a9059cbb","transferFrom(address,address,uint256)":"23b872dd"},"id":86}