{"abi":[{"type":"constructor","inputs":[],"stateMutability":"nonpayable"},{"type":"function","name":"DEFAULT_ADMIN_ROLE","inputs":[],"outputs":[{"name":"","type":"bytes32","internalType":"bytes32"}],"stateMutability":"view"},{"type":"function","name":"PAUSER_ROLE","inputs":[],"outputs":[{"name":"","type":"bytes32","internalType":"bytes32"}],"stateMutability":"view"},{"type":"function","name":"PAUSE_ALL_ROLE","inputs":[],"outputs":[{"name":"","type":"bytes32","internalType":"bytes32"}],"stateMutability":"view"},{"type":"function","name":"UNPAUSER_ROLE","inputs":[],"outputs":[{"name":"","type":"bytes32","internalType":"bytes32"}],"stateMutability":"view"},{"type":"function","name":"authorizeContract","inputs":[{"name":"contractAddress","type":"address","internalType":"address"}],"outputs":[],"stateMutability":"nonpayable"},{"type":"function","name":"deauthorizeContract","inputs":[{"name":"contractAddress","type":"address","internalType":"address"}],"outputs":[],"stateMutability":"nonpayable"},{"type":"function","name":"emergencyPauseAll","inputs":[],"outputs":[],"stateMutability":"nonpayable"},{"type":"function","name":"getAuthorizedContractCount","inputs":[],"outputs":[{"name":"","type":"uint256","internalType":"uint256"}],"stateMutability":"view"},{"type":"function","name":"getAuthorizedContracts","inputs":[],"outputs":[{"name":"","type":"address[]","internalType":"address[]"}],"stateMutability":"view"},{"type":"function","name":"getRoleAdmin","inputs":[{"name":"role","type":"bytes32","internalType":"bytes32"}],"outputs":[{"name":"","type":"bytes32","internalType":"bytes32"}],"stateMutability":"view"},{"type":"function","name":"getRoleMember","inputs":[{"name":"role","type":"bytes32","internalType":"bytes32"},{"name":"index","type":"uint256","internalType":"uint256"}],"outputs":[{"name":"","type":"address","internalType":"address"}],"stateMutability":"view"},{"type":"function","name":"getRoleMemberCount","inputs":[{"name":"role","type":"bytes32","internalType":"bytes32"}],"outputs":[{"name":"","type":"uint256","internalType":"uint256"}],"stateMutability":"view"},{"type":"function","name":"getRoleMembers","inputs":[{"name":"role","type":"bytes32","internalType":"bytes32"}],"outputs":[{"name":"","type":"address[]","internalType":"address[]"}],"stateMutability":"view"},{"type":"function","name":"grantRole","inputs":[{"name":"role","type":"bytes32","internalType":"bytes32"},{"name":"account","type":"address","internalType":"address"}],"outputs":[],"stateMutability":"nonpayable"},{"type":"function","name":"hasRole","inputs":[{"name":"role","type":"bytes32","internalType":"bytes32"},{"name":"account","type":"address","internalType":"address"}],"outputs":[{"name":"","type":"bool","internalType":"bool"}],"stateMutability":"view"},{"type":"function","name":"initialize","inputs":[{"name":"admin","type":"address","internalType":"address"},{"name":"pauser","type":"address","internalType":"address"},{"name":"unpauser","type":"address","internalType":"address"},{"name":"pauseAll","type":"address","internalType":"address"},{"name":"contracts","type":"address[]","internalType":"address[]"}],"outputs":[],"stateMutability":"nonpayable"},{"type":"function","name":"isAuthorizedContract","inputs":[{"name":"contractAddress","type":"address","internalType":"address"}],"outputs":[{"name":"","type":"bool","internalType":"bool"}],"stateMutability":"view"},{"type":"function","name":"isPaused","inputs":[{"name":"","type":"address","internalType":"address"}],"outputs":[{"name":"","type":"bool","internalType":"bool"}],"stateMutability":"view"},{"type":"function","name":"pauseContract","inputs":[{"name":"contractAddress","type":"address","internalType":"address"}],"outputs":[],"stateMutability":"nonpayable"},{"type":"function","name":"renounceRole","inputs":[{"name":"role","type":"bytes32","internalType":"bytes32"},{"name":"callerConfirmation","type":"address","internalType":"address"}],"outputs":[],"stateMutability":"nonpayable"},{"type":"function","name":"revokeRole","inputs":[{"name":"role","type":"bytes32","internalType":"bytes32"},{"name":"account","type":"address","internalType":"address"}],"outputs":[],"stateMutability":"nonpayable"},{"type":"function","name":"supportsInterface","inputs":[{"name":"interfaceId","type":"bytes4","internalType":"bytes4"}],"outputs":[{"name":"","type":"bool","internalType":"bool"}],"stateMutability":"view"},{"type":"function","name":"unpauseContract","inputs":[{"name":"contractAddress","type":"address","internalType":"address"}],"outputs":[],"stateMutability":"nonpayable"},{"type":"event","name":"ContractAuthorized","inputs":[{"name":"contractAddress","type":"address","indexed":true,"internalType":"address"}],"anonymous":false},{"type":"event","name":"ContractDeauthorized","inputs":[{"name":"contractAddress","type":"address","indexed":true,"internalType":"address"}],"anonymous":false},{"type":"event","name":"ContractPaused","inputs":[{"name":"contractAddress","type":"address","indexed":true,"internalType":"address"}],"anonymous":false},{"type":"event","name":"ContractUnpaused","inputs":[{"name":"contractAddress","type":"address","indexed":true,"internalType":"address"}],"anonymous":false},{"type":"event","name":"Initialized","inputs":[{"name":"version","type":"uint64","indexed":false,"internalType":"uint64"}],"anonymous":false},{"type":"event","name":"RoleAdminChanged","inputs":[{"name":"role","type":"bytes32","indexed":true,"internalType":"bytes32"},{"name":"previousAdminRole","type":"bytes32","indexed":true,"internalType":"bytes32"},{"name":"newAdminRole","type":"bytes32","indexed":true,"internalType":"bytes32"}],"anonymous":false},{"type":"event","name":"RoleGranted","inputs":[{"name":"role","type":"bytes32","indexed":true,"internalType":"bytes32"},{"name":"account","type":"address","indexed":true,"internalType":"address"},{"name":"sender","type":"address","indexed":true,"internalType":"address"}],"anonymous":false},{"type":"event","name":"RoleRevoked","inputs":[{"name":"role","type":"bytes32","indexed":true,"internalType":"bytes32"},{"name":"account","type":"address","indexed":true,"internalType":"address"},{"name":"sender","type":"address","indexed":true,"internalType":"address"}],"anonymous":false},{"type":"error","name":"AccessControlBadConfirmation","inputs":[]},{"type":"error","name":"AccessControlUnauthorizedAccount","inputs":[{"name":"account","type":"address","internalType":"address"},{"name":"neededRole","type":"bytes32","internalType":"bytes32"}]},{"type":"error","name":"InvalidInitialization","inputs":[]},{"type":"error","name":"NotInitializing","inputs":[]}],"bytecode":{"object":"0x6080806040523460aa575f516020611aab5f395f51905f525460ff8160401c16609b576002600160401b03196001600160401b038216016049575b6040516119fc90816100af8239f35b6001600160401b0319166001600160401b039081175f516020611aab5f395f51905f525581527fc7f505b2f371ae2175ee4913f4499e1f2633a7b5936321eed1cdaeb6115181d290602090a15f80603a565b63f92ee8a960e01b5f5260045ffd5b5f80fdfe6080806040526004361015610012575f80fd5b5f3560e01c90816301ffc9a714611079575080630775ef0f14610f54578063248a9ca314610f155780632f2ff15d14610ecb57806336568abe14610e875780635b14f18314610e4b57806366d0ead314610e0957806367561d9314610d065780636e861c0e14610c935780639010d07c14610c4257806391d1485414610bed5780639ac25d0814610bc6578063a217fddf14610bac578063a3246ad314610b3c578063adb99c8a14610a13578063aff69e8e146109f6578063ca15c873146109c0578063cf2807d91461093c578063d547741f146108eb578063d97b9bd5146107ce578063e63ab1e9146107a7578063f8453e7c146101445763fb1bb9de14610119575f80fd5b34610140575f3660031901126101405760206040515f5160206119275f395f51905f528152f35b5f80fd5b346101405760a03660031901126101405761015d6110fc565b6101656110e6565b604435906001600160a01b03821690818303610140576064356001600160a01b03811692838203610140576084359567ffffffffffffffff871161014057366023880112156101405786600401359667ffffffffffffffff8811610793578760051b90604051986101d9602084018b611154565b8952602460208a01928201019036821161014057602401915b818310610773575050505f5160206119a75f395f51905f52549560ff8760401c16159667ffffffffffffffff81168015908161076b575b6001149081610761575b159081610758575b506107495767ffffffffffffffff1981166001175f5160206119a75f395f51905f52558761071d575b506001600160a01b0382169182156106e0576001600160a01b0386169081156106a257841561065d5787156106185760ff5f5160206119a75f395f51905f525460401c1615610609575f5160206119475f395f51905f525f8181525f5160206119875f395f51905f526020527f75442b0a96088b5456bc4ed01394c96a4feec0f883c9494257d76b96ab1c9b6c8054908290556104379961042c9761042195919490936104169390917fbd79b86ffe0ab8e8776151514217cd7cacd52c909f66475c3af44e129f0b00ff8380a45f5160206119275f395f51905f525f8181525f5160206119875f395f51905f526020527f475b312747b0505dfd322c59063ca43b615bb2e6d10fdf52fb58877bbcde401280549082905590917fbd79b86ffe0ab8e8776151514217cd7cacd52c909f66475c3af44e129f0b00ff8380a45f5160206119675f395f51905f525f8181525f5160206119875f395f51905f526020527fdc314207cff278e37db3e16a95938ebc928999220747a32f1ffdfcabea6a0b5c80549082905590917fbd79b86ffe0ab8e8776151514217cd7cacd52c909f66475c3af44e129f0b00ff8380a46112f4565b6105c4575b50611390565b610572575b50611436565b610520575b506114dc565b6104ce575b505f5b825181101561047057600581901b83016020015160019190610469906001600160a01b03166116af565b500161043f565b5061047757005b68ff0000000000000000195f5160206119a75f395f51905f5254165f5160206119a75f395f51905f52557fc7f505b2f371ae2175ee4913f4499e1f2633a7b5936321eed1cdaeb6115181d2602060405160018152a1005b5f5160206119675f395f51905f525f525f5160206119075f395f51905f52602052610519907f9d6852fbad269663be81176de10339e40ee764d0c0f09648c27cadabeaa07408611715565b508261043c565b5f5160206119275f395f51905f525f525f5160206119075f395f51905f5260205261056b907f35fb679ccde267a74e2fe0853f3a66562f6f9abdffd8c46dba2632a167443d26611715565b5085610431565b5f5160206119475f395f51905f525f525f5160206119075f395f51905f526020526105bd907f5b789a035ea1a5723ef3e3892eb7edd1d6eb03ae2175a5bd1558ffe34206e866611715565b5088610426565b5f80525f5160206119075f395f51905f52602052610602907f615f0f9e84155bea8cc509fe18befeb1baf65611e38a6ba60964480fb29dfd44611715565b508b61041b565b631afcd79f60e31b5f5260045ffd5b60405162461bcd60e51b815260206004820152601860248201527f496e76616c6964207061757365416c6c206164647265737300000000000000006044820152606490fd5b60405162461bcd60e51b815260206004820152601860248201527f496e76616c696420756e706175736572206164647265737300000000000000006044820152606490fd5b60405162461bcd60e51b8152602060048201526016602482015275496e76616c696420706175736572206164647265737360501b6044820152606490fd5b60405162461bcd60e51b8152602060048201526015602482015274496e76616c69642061646d696e206164647265737360581b6044820152606490fd5b68ffffffffffffffffff191668010000000000000001175f5160206119a75f395f51905f525588610264565b63f92ee8a960e01b5f5260045ffd5b9050158a61023b565b303b159150610233565b899150610229565b82356001600160a01b0381168103610140578152602092830192016101f2565b634e487b7160e01b5f52604160045260245ffd5b34610140575f3660031901126101405760206040515f5160206119475f395f51905f528152f35b34610140576020366003190112610140576107e76110fc565b335f9081527f475b312747b0505dfd322c59063ca43b615bb2e6d10fdf52fb58877bbcde4011602052604090205460ff16156108c7576001600160a01b03165f8181526002602052604090205461083f901515611176565b805f525f60205260ff60405f2054161561088c57805f525f60205260405f2060ff1981541690557f5b65b0c1363b3003db9bcc5e1fd8805a6d6bf5bf6dc9d3431ee4494cd7d117665f80a2005b60405162461bcd60e51b815260206004820152601360248201527210dbdb9d1c9858dd081b9bdd081c185d5cd959606a1b6044820152606490fd5b63e2517d3f60e01b5f52336004525f5160206119275f395f51905f5260245260445ffd5b346101405760403660031901126101405761093a60043561090a6110e6565b90610935610930825f525f5160206119875f395f51905f52602052600160405f20015490565b611211565b61129d565b005b34610140575f3660031901126101405760405180602060015491828152019060015f527fb10e2d527612073b26eecdfd717e6a320cf44b4afac2b0732d9fcbe2b7fa0cf6905f5b8181106109aa576109a68561099a81870382611154565b60405191829182611112565b0390f35b8254845260209093019260019283019201610983565b34610140576020366003190112610140576004355f525f5160206119075f395f51905f52602052602060405f2054604051908152f35b34610140575f366003190112610140576020600154604051908152f35b3461014057602036600319011261014057610a2c6110fc565b335f9081527f75442b0a96088b5456bc4ed01394c96a4feec0f883c9494257d76b96ab1c9b6b602052604090205460ff1615610b18576001600160a01b03165f81815260026020526040902054610a84901515611176565b805f525f60205260ff60405f205416610ad357805f525f60205260405f20600160ff198254161790557f81990fd9a5c552b8e3677917d8a03c07678f0d2cb68f88b634aca2022e9bd19f5f80a2005b60405162461bcd60e51b815260206004820152601760248201527f436f6e747261637420616c7265616479207061757365640000000000000000006044820152606490fd5b63e2517d3f60e01b5f52336004525f5160206119475f395f51905f5260245260445ffd5b34610140576020366003190112610140576004355f525f5160206119075f395f51905f5260205260405f206040519081602082549182815201915f5260205f20905f5b818110610b96576109a68561099a81870382611154565b8254845260209093019260019283019201610b7f565b34610140575f3660031901126101405760206040515f8152f35b34610140575f3660031901126101405760206040515f5160206119675f395f51905f528152f35b3461014057604036600319011261014057610c066110e6565b6004355f525f5160206119875f395f51905f5260205260405f209060018060a01b03165f52602052602060ff60405f2054166040519015158152f35b34610140576040366003190112610140576004355f525f5160206119075f395f51905f526020526020610c7a60243560405f206112df565b905460405160039290921b1c6001600160a01b03168152f35b3461014057602036600319011261014057610cac6110fc565b610cb46111c2565b6001600160a01b03165f81815260026020526040902054610cd6901515611176565b610cdf81611762565b507f54142b7cb3ceaa9e564243ce4cc2303723c842a1144192de6b3c594f68b16a9a5f80a2005b3461014057602036600319011261014057610d1f6110fc565b610d276111c2565b6001600160a01b03168015610dc457610d4b815f52600260205260405f2054151590565b610d7f57610d58816116af565b507f8983a1f3c3cb45c24c8226b5b805e3b6eb49686530b808534b2a920129eff6515f80a2005b60405162461bcd60e51b815260206004820152601b60248201527f436f6e747261637420616c726561647920617574686f72697a656400000000006044820152606490fd5b60405162461bcd60e51b815260206004820152601860248201527f496e76616c696420636f6e7472616374206164647265737300000000000000006044820152606490fd5b34610140576020366003190112610140576020610e416001600160a01b03610e2f6110fc565b165f52600260205260405f2054151590565b6040519015158152f35b34610140576020366003190112610140576001600160a01b03610e6c6110fc565b165f525f602052602060ff60405f2054166040519015158152f35b3461014057604036600319011261014057610ea06110e6565b336001600160a01b03821603610ebc5761093a9060043561129d565b63334bd91960e11b5f5260045ffd5b346101405760403660031901126101405761093a600435610eea6110e6565b90610f10610930825f525f5160206119875f395f51905f52602052600160405f20015490565b611257565b34610140576020366003190112610140576020610f4c6004355f525f5160206119875f395f51905f52602052600160405f20015490565b604051908152f35b34610140575f36600319011261014057335f9081527fdc314207cff278e37db3e16a95938ebc928999220747a32f1ffdfcabea6a0b5b602052604090205460ff1615611055576001545f5b818110610fa857005b600154811015611041577fb10e2d527612073b26eecdfd717e6a320cf44b4afac2b0732d9fcbe2b7fa0cf68101546001600160a01b03165f81815260208190526040902054600192919060ff1615611002575b5001610f9f565b805f525f60205260405f208360ff198254161790557f81990fd9a5c552b8e3677917d8a03c07678f0d2cb68f88b634aca2022e9bd19f5f80a283610ffb565b634e487b7160e01b5f52603260045260245ffd5b63e2517d3f60e01b5f52336004525f5160206119675f395f51905f5260245260445ffd5b34610140576020366003190112610140576004359063ffffffff60e01b821680920361014057602091635a05180f60e01b81149081156110bb575b5015158152f35b637965db0b60e01b8114915081156110d5575b50836110b4565b6301ffc9a760e01b149050836110ce565b602435906001600160a01b038216820361014057565b600435906001600160a01b038216820361014057565b60206040818301928281528451809452019201905f5b8181106111355750505090565b82516001600160a01b0316845260209384019390920191600101611128565b90601f8019910116810190811067ffffffffffffffff82111761079357604052565b1561117d57565b60405162461bcd60e51b815260206004820152601760248201527f436f6e7472616374206e6f7420617574686f72697a65640000000000000000006044820152606490fd5b335f9081527fb7db2dd08fcb62d0c9e08c51941cae53c267786a0b75803fb7960902fc8ef97d602052604090205460ff16156111fa57565b63e2517d3f60e01b5f52336004525f60245260445ffd5b5f8181525f5160206119875f395f51905f526020908152604080832033845290915290205460ff16156112415750565b63e2517d3f60e01b5f523360045260245260445ffd5b6112618282611582565b918261126c57505090565b5f9182525f5160206119075f395f51905f526020526040909120611299916001600160a01b031690611715565b5090565b6112a78282611613565b91826112b257505090565b5f9182525f5160206119075f395f51905f526020526040909120611299916001600160a01b031690611835565b8054821015611041575f5260205f2001905f90565b6001600160a01b0381165f9081527fb7db2dd08fcb62d0c9e08c51941cae53c267786a0b75803fb7960902fc8ef97d602052604090205460ff1661138b576001600160a01b03165f8181527fb7db2dd08fcb62d0c9e08c51941cae53c267786a0b75803fb7960902fc8ef97d60205260408120805460ff191660011790553391905f5160206118e75f395f51905f528180a4600190565b505f90565b6001600160a01b0381165f9081527f75442b0a96088b5456bc4ed01394c96a4feec0f883c9494257d76b96ab1c9b6b602052604090205460ff1661138b576001600160a01b03165f8181527f75442b0a96088b5456bc4ed01394c96a4feec0f883c9494257d76b96ab1c9b6b60205260408120805460ff191660011790553391905f5160206119475f395f51905f52905f5160206118e75f395f51905f529080a4600190565b6001600160a01b0381165f9081527f475b312747b0505dfd322c59063ca43b615bb2e6d10fdf52fb58877bbcde4011602052604090205460ff1661138b576001600160a01b03165f8181527f475b312747b0505dfd322c59063ca43b615bb2e6d10fdf52fb58877bbcde401160205260408120805460ff191660011790553391905f5160206119275f395f51905f52905f5160206118e75f395f51905f529080a4600190565b6001600160a01b0381165f9081527fdc314207cff278e37db3e16a95938ebc928999220747a32f1ffdfcabea6a0b5b602052604090205460ff1661138b576001600160a01b03165f8181527fdc314207cff278e37db3e16a95938ebc928999220747a32f1ffdfcabea6a0b5b60205260408120805460ff191660011790553391905f5160206119675f395f51905f52905f5160206118e75f395f51905f529080a4600190565b5f8181525f5160206119875f395f51905f52602090815260408083206001600160a01b038616845290915290205460ff1661160d575f8181525f5160206119875f395f51905f52602090815260408083206001600160a01b0395909516808452949091528120805460ff19166001179055339291905f5160206118e75f395f51905f529080a4600190565b50505f90565b5f8181525f5160206119875f395f51905f52602090815260408083206001600160a01b038616845290915290205460ff161561160d575f8181525f5160206119875f395f51905f52602090815260408083206001600160a01b0395909516808452949091528120805460ff19169055339291907ff6391f5c32d9c69d2a47ea670b442974b53935d1edc7fd64eb21e047a839171b9080a4600190565b805f52600260205260405f2054155f1461138b57600154600160401b811015610793576116fe6116e882600185940160015560016112df565b819391549060031b91821b915f19901b19161790565b9055600154905f52600260205260405f2055600190565b5f82815260018201602052604090205461160d57805490600160401b821015610793578261174d6116e88460018096018555846112df565b90558054925f520160205260405f2055600190565b5f81815260026020526040902054801561160d575f198101818111611821576001545f19810191908211611821578181036117e9575b50505060015480156117d5575f19016117b28160016112df565b8154905f199060031b1b191690556001555f5260026020525f6040812055600190565b634e487b7160e01b5f52603160045260245ffd5b61180b6117fa6116e89360016112df565b90549060031b1c92839260016112df565b90555f52600260205260405f20555f8080611798565b634e487b7160e01b5f52601160045260245ffd5b906001820191815f528260205260405f20548015155f146118de575f1981018181116118215782545f19810191908211611821578181036118a9575b505050805480156117d5575f19019061188a82826112df565b8154905f199060031b1b19169055555f526020525f6040812055600190565b6118c96118b96116e893866112df565b90549060031b1c928392866112df565b90555f528360205260405f20555f8080611871565b505050505f9056fe2f8788117e7eff1d82e926ec794901d17c78024a50270940304540a733656f0dc1f6fe24621ce81ec5827caf0253cadb74709b061630e6b55e82371705932000427da25fe773164f88948d3e215c94b6554e2ed5e5f203a821c9f2f6131cf75a65d7a28e3265b37a6474929f336521b332c1681b933f6cb9f3376673440d862a56bdc3c9ec86cb7db110a7699b2ade72f0b8819727d9f7d906b012641505fa7702dd7bc7dec4dceedda775e58dd541e08a116c6c53815c0bd028192f7b626800f0c57e16840df040f15088dc2f81fe391c3923bec73e23a9662efc9c229c6a00a2646970667358221220c081d32b81a9020be17a39149cd36aaeaa2778280fa74ca0aa4bf383241fea8d64736f6c634300081c0033f0c57e16840df040f15088dc2f81fe391c3923bec73e23a9662efc9c229c6a00","linkReferences":{}},"methodIdentifiers":{"DEFAULT_ADMIN_ROLE()":"a217fddf","PAUSER_ROLE()":"e63ab1e9","PAUSE_ALL_ROLE()":"9ac25d08","UNPAUSER_ROLE()":"fb1bb9de","authorizeContract(address)":"67561d93","deauthorizeContract(address)":"6e861c0e","emergencyPauseAll()":"0775ef0f","getAuthorizedContractCount()":"aff69e8e","getAuthorizedContracts()":"cf2807d9","getRoleAdmin(bytes32)":"248a9ca3","getRoleMember(bytes32,uint256)":"9010d07c","getRoleMemberCount(bytes32)":"ca15c873","getRoleMembers(bytes32)":"a3246ad3","grantRole(bytes32,address)":"2f2ff15d","hasRole(bytes32,address)":"91d14854","initialize(address,address,address,address,address[])":"f8453e7c","isAuthorizedContract(address)":"66d0ead3","isPaused(address)":"5b14f183","pauseContract(address)":"adb99c8a","renounceRole(bytes32,address)":"36568abe","revokeRole(bytes32,address)":"d547741f","supportsInterface(bytes4)":"01ffc9a7","unpauseContract(address)":"d97b9bd5"},"id":88}